{
  "_format": "hh-sol-artifact-1",
  "contractName": "AssetMarketplace",
  "sourceName": "contracts/AssetMarketplace.sol",
  "abi": [
    {
      "inputs": [],
      "name": "InvalidInitialization",
      "type": "error"
    },
    {
      "inputs": [],
      "name": "NotInitializing",
      "type": "error"
    },
    {
      "anonymous": false,
      "inputs": [
        {
          "indexed": false,
          "internalType": "uint256",
          "name": "id",
          "type": "uint256"
        },
        {
          "indexed": false,
          "internalType": "bool",
          "name": "isListed",
          "type": "bool"
        }
      ],
      "name": "AssetListStatusUpdated",
      "type": "event"
    },
    {
      "anonymous": false,
      "inputs": [
        {
          "indexed": false,
          "internalType": "uint256",
          "name": "id",
          "type": "uint256"
        },
        {
          "indexed": false,
          "internalType": "string",
          "name": "name",
          "type": "string"
        },
        {
          "indexed": false,
          "internalType": "uint256",
          "name": "price",
          "type": "uint256"
        },
        {
          "indexed": false,
          "internalType": "string",
          "name": "userId",
          "type": "string"
        }
      ],
      "name": "AssetListed",
      "type": "event"
    },
    {
      "anonymous": false,
      "inputs": [
        {
          "indexed": false,
          "internalType": "uint256",
          "name": "id",
          "type": "uint256"
        },
        {
          "indexed": false,
          "internalType": "string",
          "name": "userId",
          "type": "string"
        },
        {
          "indexed": false,
          "internalType": "address",
          "name": "wallet",
          "type": "address"
        },
        {
          "indexed": false,
          "internalType": "uint256",
          "name": "price",
          "type": "uint256"
        }
      ],
      "name": "AssetPurchased",
      "type": "event"
    },
    {
      "anonymous": false,
      "inputs": [
        {
          "indexed": true,
          "internalType": "address",
          "name": "creator",
          "type": "address"
        },
        {
          "indexed": false,
          "internalType": "uint256",
          "name": "amount",
          "type": "uint256"
        }
      ],
      "name": "CreatorEarnings",
      "type": "event"
    },
    {
      "anonymous": false,
      "inputs": [
        {
          "indexed": false,
          "internalType": "uint64",
          "name": "version",
          "type": "uint64"
        }
      ],
      "name": "Initialized",
      "type": "event"
    },
    {
      "inputs": [
        {
          "internalType": "uint256",
          "name": "",
          "type": "uint256"
        }
      ],
      "name": "assets",
      "outputs": [
        {
          "internalType": "uint256",
          "name": "id",
          "type": "uint256"
        },
        {
          "internalType": "string",
          "name": "name",
          "type": "string"
        },
        {
          "internalType": "string",
          "name": "description",
          "type": "string"
        },
        {
          "internalType": "uint256",
          "name": "price",
          "type": "uint256"
        },
        {
          "internalType": "string",
          "name": "assetUrl",
          "type": "string"
        },
        {
          "internalType": "string",
          "name": "userId",
          "type": "string"
        },
        {
          "internalType": "address payable",
          "name": "currentWallet",
          "type": "address"
        },
        {
          "internalType": "bool",
          "name": "isSold",
          "type": "bool"
        },
        {
          "internalType": "bool",
          "name": "isListed",
          "type": "bool"
        },
        {
          "internalType": "address",
          "name": "creator",
          "type": "address"
        }
      ],
      "stateMutability": "view",
      "type": "function"
    },
    {
      "inputs": [
        {
          "internalType": "address",
          "name": "",
          "type": "address"
        }
      ],
      "name": "creatorEarnings",
      "outputs": [
        {
          "internalType": "uint256",
          "name": "",
          "type": "uint256"
        }
      ],
      "stateMutability": "view",
      "type": "function"
    },
    {
      "inputs": [],
      "name": "getAssetCounter",
      "outputs": [
        {
          "internalType": "uint256",
          "name": "",
          "type": "uint256"
        }
      ],
      "stateMutability": "view",
      "type": "function"
    },
    {
      "inputs": [],
      "name": "getCreatorEarnings",
      "outputs": [
        {
          "internalType": "uint256",
          "name": "",
          "type": "uint256"
        }
      ],
      "stateMutability": "view",
      "type": "function"
    },
    {
      "inputs": [
        {
          "internalType": "string",
          "name": "_userId",
          "type": "string"
        }
      ],
      "name": "getUserAssets",
      "outputs": [
        {
          "components": [
            {
              "internalType": "uint256",
              "name": "id",
              "type": "uint256"
            },
            {
              "internalType": "string",
              "name": "name",
              "type": "string"
            },
            {
              "internalType": "string",
              "name": "description",
              "type": "string"
            },
            {
              "internalType": "uint256",
              "name": "price",
              "type": "uint256"
            },
            {
              "internalType": "string",
              "name": "assetUrl",
              "type": "string"
            },
            {
              "internalType": "string",
              "name": "userId",
              "type": "string"
            },
            {
              "internalType": "address payable",
              "name": "currentWallet",
              "type": "address"
            },
            {
              "internalType": "bool",
              "name": "isSold",
              "type": "bool"
            },
            {
              "internalType": "bool",
              "name": "isListed",
              "type": "bool"
            },
            {
              "internalType": "address",
              "name": "creator",
              "type": "address"
            }
          ],
          "internalType": "struct AssetMarketplace.Asset[]",
          "name": "",
          "type": "tuple[]"
        }
      ],
      "stateMutability": "view",
      "type": "function"
    },
    {
      "inputs": [],
      "name": "initialize",
      "outputs": [],
      "stateMutability": "nonpayable",
      "type": "function"
    },
    {
      "inputs": [
        {
          "internalType": "uint256",
          "name": "_id",
          "type": "uint256"
        }
      ],
      "name": "isAssetListed",
      "outputs": [
        {
          "internalType": "bool",
          "name": "",
          "type": "bool"
        }
      ],
      "stateMutability": "view",
      "type": "function"
    },
    {
      "inputs": [
        {
          "internalType": "string",
          "name": "_userId",
          "type": "string"
        },
        {
          "internalType": "string",
          "name": "_name",
          "type": "string"
        },
        {
          "internalType": "string",
          "name": "_description",
          "type": "string"
        },
        {
          "internalType": "uint256",
          "name": "_price",
          "type": "uint256"
        },
        {
          "internalType": "string",
          "name": "_assetUrl",
          "type": "string"
        }
      ],
      "name": "listAsset",
      "outputs": [],
      "stateMutability": "nonpayable",
      "type": "function"
    },
    {
      "inputs": [
        {
          "internalType": "uint256",
          "name": "_id",
          "type": "uint256"
        },
        {
          "internalType": "string",
          "name": "_userId",
          "type": "string"
        }
      ],
      "name": "purchaseAsset",
      "outputs": [],
      "stateMutability": "payable",
      "type": "function"
    },
    {
      "inputs": [
        {
          "internalType": "uint256",
          "name": "_id",
          "type": "uint256"
        }
      ],
      "name": "toggleListingStatus",
      "outputs": [],
      "stateMutability": "nonpayable",
      "type": "function"
    }
  ],
  "bytecode": "0x6080604052348015600f57600080fd5b506129ce8061001f6000396000f3fe6080604052600436106100915760003560e01c80639a9a4c73116100595780639a9a4c731461017d578063a2303a9514610199578063bc5edbf4146101c2578063cf35bdd0146101eb578063fa3c30a81461023157610091565b806316aa11c2146100965780634090a26f146100d357806350d6b88a146101105780638129fc1c1461013b578063833d99e714610152575b600080fd5b3480156100a257600080fd5b506100bd60048036038101906100b89190611824565b61026e565b6040516100ca9190611b33565b60405180910390f35b3480156100df57600080fd5b506100fa60048036038101906100f59190611b81565b6106ad565b6040516101079190611bbd565b60405180910390f35b34801561011c57600080fd5b506101256106da565b6040516101329190611be7565b60405180910390f35b34801561014757600080fd5b506101506106e3565b005b34801561015e57600080fd5b5061016761086f565b6040516101749190611be7565b60405180910390f35b61019760048036038101906101929190611c02565b6108b6565b005b3480156101a557600080fd5b506101c060048036038101906101bb9190611b81565b610e42565b005b3480156101ce57600080fd5b506101e960048036038101906101e49190611c5e565b610fb9565b005b3480156101f757600080fd5b50610212600480360381019061020d9190611b81565b611339565b6040516102289a99989796959493929190611db1565b60405180910390f35b34801561023d57600080fd5b5061025860048036038101906102539190611e95565b611607565b6040516102659190611be7565b60405180910390f35b606060006002836040516102829190611efe565b908152602001604051809103902090506000818054905067ffffffffffffffff8111156102b2576102b16116f9565b5b6040519080825280602002602001820160405280156102eb57816020015b6102d8611647565b8152602001906001900390816102d05790505b50905060005b82805490508110156106a2576001600084838154811061031457610313611f15565b5b90600052602060002001548152602001908152602001600020604051806101400160405290816000820154815260200160018201805461035390611f73565b80601f016020809104026020016040519081016040528092919081815260200182805461037f90611f73565b80156103cc5780601f106103a1576101008083540402835291602001916103cc565b820191906000526020600020905b8154815290600101906020018083116103af57829003601f168201915b505050505081526020016002820180546103e590611f73565b80601f016020809104026020016040519081016040528092919081815260200182805461041190611f73565b801561045e5780601f106104335761010080835404028352916020019161045e565b820191906000526020600020905b81548152906001019060200180831161044157829003601f168201915b505050505081526020016003820154815260200160048201805461048190611f73565b80601f01602080910402602001604051908101604052809291908181526020018280546104ad90611f73565b80156104fa5780601f106104cf576101008083540402835291602001916104fa565b820191906000526020600020905b8154815290600101906020018083116104dd57829003601f168201915b5050505050815260200160058201805461051390611f73565b80601f016020809104026020016040519081016040528092919081815260200182805461053f90611f73565b801561058c5780601f106105615761010080835404028352916020019161058c565b820191906000526020600020905b81548152906001019060200180831161056f57829003601f168201915b505050505081526020016006820160009054906101000a900473ffffffffffffffffffffffffffffffffffffffff1673ffffffffffffffffffffffffffffffffffffffff1673ffffffffffffffffffffffffffffffffffffffff1681526020016006820160149054906101000a900460ff161515151581526020016006820160159054906101000a900460ff161515151581526020016007820160009054906101000a900473ffffffffffffffffffffffffffffffffffffffff1673ffffffffffffffffffffffffffffffffffffffff1673ffffffffffffffffffffffffffffffffffffffff168152505082828151811061068a57610689611f15565b5b602002602001018190525080806001019150506102f1565b508092505050919050565b60006001600083815260200190815260200160002060060160159054906101000a900460ff169050919050565b60008054905090565b60006106ed61161f565b905060008160000160089054906101000a900460ff1615905060008260000160009054906101000a900467ffffffffffffffff1690506000808267ffffffffffffffff1614801561073b5750825b9050600060018367ffffffffffffffff16148015610770575060003073ffffffffffffffffffffffffffffffffffffffff163b145b90508115801561077e575080155b156107b5576040517ff92ee8a900000000000000000000000000000000000000000000000000000000815260040160405180910390fd5b60018560000160006101000a81548167ffffffffffffffff021916908367ffffffffffffffff16021790555083156108055760018560000160086101000a81548160ff0219169083151502179055505b6000808190555083156108685760008560000160086101000a81548160ff0219169083151502179055507fc7f505b2f371ae2175ee4913f4499e1f2633a7b5936321eed1cdaeb6115181d2600160405161085f9190611ffd565b60405180910390a15b5050505050565b6000600360003373ffffffffffffffffffffffffffffffffffffffff1673ffffffffffffffffffffffffffffffffffffffff16815260200190815260200160002054905090565b60006001600084815260200190815260200160002090508060060160149054906101000a900460ff161561091f576040517f08c379a000000000000000000000000000000000000000000000000000000000815260040161091690612064565b60405180910390fd5b80600301543414610965576040517f08c379a000000000000000000000000000000000000000000000000000000000815260040161095c906120d0565b60405180910390fd5b60008251116109a9576040517f08c379a00000000000000000000000000000000000000000000000000000000081526004016109a09061213c565b60405180910390fd5b8060060160159054906101000a900460ff166109fa576040517f08c379a00000000000000000000000000000000000000000000000000000000081526004016109f1906121a8565b60405180910390fd5b60008160070160009054906101000a900473ffffffffffffffffffffffffffffffffffffffff1673ffffffffffffffffffffffffffffffffffffffff1634604051610a44906121f9565b60006040518083038185875af1925050503d8060008114610a81576040519150601f19603f3d011682016040523d82523d6000602084013e610a86565b606091505b5050905080610aca576040517f08c379a0000000000000000000000000000000000000000000000000000000008152600401610ac19061225a565b60405180910390fd5b34600360008460070160009054906101000a900473ffffffffffffffffffffffffffffffffffffffff1673ffffffffffffffffffffffffffffffffffffffff1673ffffffffffffffffffffffffffffffffffffffff1681526020019081526020016000206000828254610b3d91906122a9565b925050819055508160070160009054906101000a900473ffffffffffffffffffffffffffffffffffffffff1673ffffffffffffffffffffffffffffffffffffffff167fb3211638eadf8fe8db4a7f22f4d0857583129e0bba88bf448227973f2d9443d234604051610bae9190611be7565b60405180910390a26000826005018054610bc790611f73565b80601f0160208091040260200160405190810160405280929190818152602001828054610bf390611f73565b8015610c405780601f10610c1557610100808354040283529160200191610c40565b820191906000526020600020905b815481529060010190602001808311610c2357829003601f168201915b50505050509050338360060160006101000a81548173ffffffffffffffffffffffffffffffffffffffff021916908373ffffffffffffffffffffffffffffffffffffffff16021790555060018360060160146101000a81548160ff02191690831515021790555060008360060160156101000a81548160ff02191690831515021790555083836005019081610cd5919061247f565b506000600282604051610ce89190611efe565b9081526020016040518091039020905060005b8180549050811015610db35786828281548110610d1b57610d1a611f15565b5b906000526020600020015403610da6578160018380549050610d3d9190612551565b81548110610d4e57610d4d611f15565b5b9060005260206000200154828281548110610d6c57610d6b611f15565b5b906000526020600020018190555081805480610d8b57610d8a612585565b5b60019003818190600052602060002001600090559055610db3565b8080600101915050610cfb565b50600285604051610dc49190611efe565b90815260200160405180910390208690806001815401808255809150506001900390600052602060002001600090919091909150557faa1aaf83c548988ee15ab834b8027fb3a437218d81b9417f7c44875f830909528686338760030154604051610e3294939291906125b4565b60405180910390a1505050505050565b60006001600083815260200190815260200160002090508060070160009054906101000a900473ffffffffffffffffffffffffffffffffffffffff1673ffffffffffffffffffffffffffffffffffffffff163373ffffffffffffffffffffffffffffffffffffffff1614610eeb576040517f08c379a0000000000000000000000000000000000000000000000000000000008152600401610ee290612672565b60405180910390fd5b8060060160149054906101000a900460ff1615610f3d576040517f08c379a0000000000000000000000000000000000000000000000000000000008152600401610f3490612704565b60405180910390fd5b8060060160159054906101000a900460ff16158160060160156101000a81548160ff0219169083151502179055507fd50a27e3b9691b827c539327cb063704ae22039ae9c907e3e0606e9a5eaa2aee828260060160159054906101000a900460ff16604051610fad929190612724565b60405180910390a15050565b60008211610ffc576040517f08c379a0000000000000000000000000000000000000000000000000000000008152600401610ff390612799565b60405180910390fd5b6000845111611040576040517f08c379a000000000000000000000000000000000000000000000000000000000815260040161103790612805565b60405180910390fd5b6000835111611084576040517f08c379a000000000000000000000000000000000000000000000000000000000815260040161107b90612871565b60405180910390fd5b60008151116110c8576040517f08c379a00000000000000000000000000000000000000000000000000000000081526004016110bf906128dd565b60405180910390fd5b6000808154809291906110da906128fd565b919050555060405180610140016040528060005481526020018581526020018481526020018381526020018281526020018681526020013373ffffffffffffffffffffffffffffffffffffffff1681526020016000151581526020016001151581526020013373ffffffffffffffffffffffffffffffffffffffff16815250600160008054815260200190815260200160002060008201518160000155602082015181600101908161118c919061247f565b5060408201518160020190816111a2919061247f565b506060820151816003015560808201518160040190816111c2919061247f565b5060a08201518160050190816111d8919061247f565b5060c08201518160060160006101000a81548173ffffffffffffffffffffffffffffffffffffffff021916908373ffffffffffffffffffffffffffffffffffffffff16021790555060e08201518160060160146101000a81548160ff0219169083151502179055506101008201518160060160156101000a81548160ff0219169083151502179055506101208201518160070160006101000a81548173ffffffffffffffffffffffffffffffffffffffff021916908373ffffffffffffffffffffffffffffffffffffffff1602179055509050506002856040516112bc9190611efe565b908152602001604051809103902060005490806001815401808255809150506001900390600052602060002001600090919091909150557f7022affff81ddecba567e3f08dcfe091e84b14d863edebe935ad0ad070c4d6b760005485848860405161132a9493929190612945565b60405180910390a15050505050565b600160205280600052604060002060009150905080600001549080600101805461136290611f73565b80601f016020809104026020016040519081016040528092919081815260200182805461138e90611f73565b80156113db5780601f106113b0576101008083540402835291602001916113db565b820191906000526020600020905b8154815290600101906020018083116113be57829003601f168201915b5050505050908060020180546113f090611f73565b80601f016020809104026020016040519081016040528092919081815260200182805461141c90611f73565b80156114695780601f1061143e57610100808354040283529160200191611469565b820191906000526020600020905b81548152906001019060200180831161144c57829003601f168201915b50505050509080600301549080600401805461148490611f73565b80601f01602080910402602001604051908101604052809291908181526020018280546114b090611f73565b80156114fd5780601f106114d2576101008083540402835291602001916114fd565b820191906000526020600020905b8154815290600101906020018083116114e057829003601f168201915b50505050509080600501805461151290611f73565b80601f016020809104026020016040519081016040528092919081815260200182805461153e90611f73565b801561158b5780601f106115605761010080835404028352916020019161158b565b820191906000526020600020905b81548152906001019060200180831161156e57829003601f168201915b5050505050908060060160009054906101000a900473ffffffffffffffffffffffffffffffffffffffff16908060060160149054906101000a900460ff16908060060160159054906101000a900460ff16908060070160009054906101000a900473ffffffffffffffffffffffffffffffffffffffff1690508a565b60036020528060005260406000206000915090505481565b60007ff0c57e16840df040f15088dc2f81fe391c3923bec73e23a9662efc9c229c6a00905090565b604051806101400160405280600081526020016060815260200160608152602001600081526020016060815260200160608152602001600073ffffffffffffffffffffffffffffffffffffffff168152602001600015158152602001600015158152602001600073ffffffffffffffffffffffffffffffffffffffff1681525090565b6000604051905090565b600080fd5b600080fd5b600080fd5b600080fd5b6000601f19601f8301169050919050565b7f4e487b7100000000000000000000000000000000000000000000000000000000600052604160045260246000fd5b611731826116e8565b810181811067ffffffffffffffff821117156117505761174f6116f9565b5b80604052505050565b60006117636116ca565b905061176f8282611728565b919050565b600067ffffffffffffffff82111561178f5761178e6116f9565b5b611798826116e8565b9050602081019050919050565b82818337600083830152505050565b60006117c76117c284611774565b611759565b9050828152602081018484840111156117e3576117e26116e3565b5b6117ee8482856117a5565b509392505050565b600082601f83011261180b5761180a6116de565b5b813561181b8482602086016117b4565b91505092915050565b60006020828403121561183a576118396116d4565b5b600082013567ffffffffffffffff811115611858576118576116d9565b5b611864848285016117f6565b91505092915050565b600081519050919050565b600082825260208201905092915050565b6000819050602082019050919050565b6000819050919050565b6118ac81611899565b82525050565b600081519050919050565b600082825260208201905092915050565b60005b838110156118ec5780820151818401526020810190506118d1565b60008484015250505050565b6000611903826118b2565b61190d81856118bd565b935061191d8185602086016118ce565b611926816116e8565b840191505092915050565b600073ffffffffffffffffffffffffffffffffffffffff82169050919050565b600061195c82611931565b9050919050565b61196c81611951565b82525050565b60008115159050919050565b61198781611972565b82525050565b600061199882611931565b9050919050565b6119a88161198d565b82525050565b6000610140830160008301516119c760008601826118a3565b50602083015184820360208601526119df82826118f8565b915050604083015184820360408601526119f982826118f8565b9150506060830151611a0e60608601826118a3565b5060808301518482036080860152611a2682826118f8565b91505060a083015184820360a0860152611a4082826118f8565b91505060c0830151611a5560c0860182611963565b5060e0830151611a6860e086018261197e565b50610100830151611a7d61010086018261197e565b50610120830151611a9261012086018261199f565b508091505092915050565b6000611aa983836119ae565b905092915050565b6000602082019050919050565b6000611ac98261186d565b611ad38185611878565b935083602082028501611ae585611889565b8060005b85811015611b215784840389528151611b028582611a9d565b9450611b0d83611ab1565b925060208a01995050600181019050611ae9565b50829750879550505050505092915050565b60006020820190508181036000830152611b4d8184611abe565b905092915050565b611b5e81611899565b8114611b6957600080fd5b50565b600081359050611b7b81611b55565b92915050565b600060208284031215611b9757611b966116d4565b5b6000611ba584828501611b6c565b91505092915050565b611bb781611972565b82525050565b6000602082019050611bd26000830184611bae565b92915050565b611be181611899565b82525050565b6000602082019050611bfc6000830184611bd8565b92915050565b60008060408385031215611c1957611c186116d4565b5b6000611c2785828601611b6c565b925050602083013567ffffffffffffffff811115611c4857611c476116d9565b5b611c54858286016117f6565b9150509250929050565b600080600080600060a08688031215611c7a57611c796116d4565b5b600086013567ffffffffffffffff811115611c9857611c976116d9565b5b611ca4888289016117f6565b955050602086013567ffffffffffffffff811115611cc557611cc46116d9565b5b611cd1888289016117f6565b945050604086013567ffffffffffffffff811115611cf257611cf16116d9565b5b611cfe888289016117f6565b9350506060611d0f88828901611b6c565b925050608086013567ffffffffffffffff811115611d3057611d2f6116d9565b5b611d3c888289016117f6565b9150509295509295909350565b600082825260208201905092915050565b6000611d65826118b2565b611d6f8185611d49565b9350611d7f8185602086016118ce565b611d88816116e8565b840191505092915050565b611d9c81611951565b82525050565b611dab8161198d565b82525050565b600061014082019050611dc7600083018d611bd8565b8181036020830152611dd9818c611d5a565b90508181036040830152611ded818b611d5a565b9050611dfc606083018a611bd8565b8181036080830152611e0e8189611d5a565b905081810360a0830152611e228188611d5a565b9050611e3160c0830187611d93565b611e3e60e0830186611bae565b611e4c610100830185611bae565b611e5a610120830184611da2565b9b9a5050505050505050505050565b611e728161198d565b8114611e7d57600080fd5b50565b600081359050611e8f81611e69565b92915050565b600060208284031215611eab57611eaa6116d4565b5b6000611eb984828501611e80565b91505092915050565b600081905092915050565b6000611ed8826118b2565b611ee28185611ec2565b9350611ef28185602086016118ce565b80840191505092915050565b6000611f0a8284611ecd565b915081905092915050565b7f4e487b7100000000000000000000000000000000000000000000000000000000600052603260045260246000fd5b7f4e487b7100000000000000000000000000000000000000000000000000000000600052602260045260246000fd5b60006002820490506001821680611f8b57607f821691505b602082108103611f9e57611f9d611f44565b5b50919050565b6000819050919050565b600067ffffffffffffffff82169050919050565b6000819050919050565b6000611fe7611fe2611fdd84611fa4565b611fc2565b611fae565b9050919050565b611ff781611fcc565b82525050565b60006020820190506120126000830184611fee565b92915050565b7f417373657420616c726561647920736f6c640000000000000000000000000000600082015250565b600061204e601283611d49565b915061205982612018565b602082019050919050565b6000602082019050818103600083015261207d81612041565b9050919050565b7f496e636f7272656374207061796d656e7420616d6f756e740000000000000000600082015250565b60006120ba601883611d49565b91506120c582612084565b602082019050919050565b600060208201905081810360008301526120e9816120ad565b9050919050565b7f557365722049442063616e6e6f7420626520656d707479000000000000000000600082015250565b6000612126601783611d49565b9150612131826120f0565b602082019050919050565b6000602082019050818103600083015261215581612119565b9050919050565b7f4173736574206973206e6f74206c697374656400000000000000000000000000600082015250565b6000612192601383611d49565b915061219d8261215c565b602082019050919050565b600060208201905081810360008301526121c181612185565b9050919050565b600081905092915050565b50565b60006121e36000836121c8565b91506121ee826121d3565b600082019050919050565b6000612204826121d6565b9150819050919050565b7f5472616e73666572206661696c65640000000000000000000000000000000000600082015250565b6000612244600f83611d49565b915061224f8261220e565b602082019050919050565b6000602082019050818103600083015261227381612237565b9050919050565b7f4e487b7100000000000000000000000000000000000000000000000000000000600052601160045260246000fd5b60006122b482611899565b91506122bf83611899565b92508282019050808211156122d7576122d661227a565b5b92915050565b60008190508160005260206000209050919050565b60006020601f8301049050919050565b600082821b905092915050565b60006008830261233f7fffffffffffffffffffffffffffffffffffffffffffffffffffffffffffffffff82612302565b6123498683612302565b95508019841693508086168417925050509392505050565b600061237c61237761237284611899565b611fc2565b611899565b9050919050565b6000819050919050565b61239683612361565b6123aa6123a282612383565b84845461230f565b825550505050565b600090565b6123bf6123b2565b6123ca81848461238d565b505050565b5b818110156123ee576123e36000826123b7565b6001810190506123d0565b5050565b601f82111561243357612404816122dd565b61240d846122f2565b8101602085101561241c578190505b612430612428856122f2565b8301826123cf565b50505b505050565b600082821c905092915050565b600061245660001984600802612438565b1980831691505092915050565b600061246f8383612445565b9150826002028217905092915050565b612488826118b2565b67ffffffffffffffff8111156124a1576124a06116f9565b5b6124ab8254611f73565b6124b68282856123f2565b600060209050601f8311600181146124e957600084156124d7578287015190505b6124e18582612463565b865550612549565b601f1984166124f7866122dd565b60005b8281101561251f578489015182556001820191506020850194506020810190506124fa565b8683101561253c5784890151612538601f891682612445565b8355505b6001600288020188555050505b505050505050565b600061255c82611899565b915061256783611899565b925082820390508181111561257f5761257e61227a565b5b92915050565b7f4e487b7100000000000000000000000000000000000000000000000000000000600052603160045260246000fd5b60006080820190506125c96000830187611bd8565b81810360208301526125db8186611d5a565b90506125ea6040830185611da2565b6125f76060830184611bd8565b95945050505050565b7f4f6e6c792063726561746f722063616e20746f67676c65206c697374696e672060008201527f7374617475730000000000000000000000000000000000000000000000000000602082015250565b600061265c602683611d49565b915061266782612600565b604082019050919050565b6000602082019050818103600083015261268b8161264f565b9050919050565b7f43616e6e6f7420746f67676c65206c697374696e672073746174757320666f7260008201527f20736f6c64206173736574730000000000000000000000000000000000000000602082015250565b60006126ee602c83611d49565b91506126f982612692565b604082019050919050565b6000602082019050818103600083015261271d816126e1565b9050919050565b60006040820190506127396000830185611bd8565b6127466020830184611bae565b9392505050565b7f5072696365206d7573742062652067726561746572207468616e203000000000600082015250565b6000612783601c83611d49565b915061278e8261274d565b602082019050919050565b600060208201905081810360008301526127b281612776565b9050919050565b7f4e616d652063616e6e6f7420626520656d707479000000000000000000000000600082015250565b60006127ef601483611d49565b91506127fa826127b9565b602082019050919050565b6000602082019050818103600083015261281e816127e2565b9050919050565b7f4465736372697074696f6e2063616e6e6f7420626520656d7074790000000000600082015250565b600061285b601b83611d49565b915061286682612825565b602082019050919050565b6000602082019050818103600083015261288a8161284e565b9050919050565b7f41737365742055524c2063616e6e6f7420626520656d70747900000000000000600082015250565b60006128c7601983611d49565b91506128d282612891565b602082019050919050565b600060208201905081810360008301526128f6816128ba565b9050919050565b600061290882611899565b91507fffffffffffffffffffffffffffffffffffffffffffffffffffffffffffffffff820361293a5761293961227a565b5b600182019050919050565b600060808201905061295a6000830187611bd8565b818103602083015261296c8186611d5a565b905061297b6040830185611bd8565b818103606083015261298d8184611d5a565b90509594505050505056fea26469706673582212204ff267420568381f0339378a122284deb48a136ce5a4642c6a562ee12fee0c2564736f6c634300081c0033",
  "linkReferences": {},
  "deployedLinkReferences": {}
}