{
  "_format": "hh-sol-artifact-1",
  "contractName": "AssetMarketplace",
  "sourceName": "contracts/AssetMarketplace.sol",
  "abi": [
    {
      "anonymous": false,
      "inputs": [
        {
          "indexed": false,
          "internalType": "uint256",
          "name": "id",
          "type": "uint256"
        },
        {
          "indexed": false,
          "internalType": "string",
          "name": "name",
          "type": "string"
        },
        {
          "indexed": false,
          "internalType": "uint256",
          "name": "price",
          "type": "uint256"
        },
        {
          "indexed": false,
          "internalType": "string",
          "name": "userId",
          "type": "string"
        }
      ],
      "name": "AssetListed",
      "type": "event"
    },
    {
      "anonymous": false,
      "inputs": [
        {
          "indexed": false,
          "internalType": "uint256",
          "name": "id",
          "type": "uint256"
        },
        {
          "indexed": false,
          "internalType": "string",
          "name": "userId",
          "type": "string"
        },
        {
          "indexed": false,
          "internalType": "address",
          "name": "wallet",
          "type": "address"
        }
      ],
      "name": "AssetPurchased",
      "type": "event"
    },
    {
      "inputs": [
        {
          "internalType": "uint256",
          "name": "",
          "type": "uint256"
        }
      ],
      "name": "assets",
      "outputs": [
        {
          "internalType": "uint256",
          "name": "id",
          "type": "uint256"
        },
        {
          "internalType": "string",
          "name": "name",
          "type": "string"
        },
        {
          "internalType": "string",
          "name": "description",
          "type": "string"
        },
        {
          "internalType": "uint256",
          "name": "price",
          "type": "uint256"
        },
        {
          "internalType": "string",
          "name": "assetUrl",
          "type": "string"
        },
        {
          "internalType": "string",
          "name": "userId",
          "type": "string"
        },
        {
          "internalType": "address payable",
          "name": "currentWallet",
          "type": "address"
        },
        {
          "internalType": "bool",
          "name": "isSold",
          "type": "bool"
        }
      ],
      "stateMutability": "view",
      "type": "function"
    },
    {
      "inputs": [
        {
          "internalType": "string",
          "name": "_userId",
          "type": "string"
        }
      ],
      "name": "getUserAssets",
      "outputs": [
        {
          "components": [
            {
              "internalType": "uint256",
              "name": "id",
              "type": "uint256"
            },
            {
              "internalType": "string",
              "name": "name",
              "type": "string"
            },
            {
              "internalType": "string",
              "name": "description",
              "type": "string"
            },
            {
              "internalType": "uint256",
              "name": "price",
              "type": "uint256"
            },
            {
              "internalType": "string",
              "name": "assetUrl",
              "type": "string"
            },
            {
              "internalType": "string",
              "name": "userId",
              "type": "string"
            },
            {
              "internalType": "address payable",
              "name": "currentWallet",
              "type": "address"
            },
            {
              "internalType": "bool",
              "name": "isSold",
              "type": "bool"
            }
          ],
          "internalType": "struct AssetMarketplace.Asset[]",
          "name": "",
          "type": "tuple[]"
        }
      ],
      "stateMutability": "view",
      "type": "function"
    },
    {
      "inputs": [
        {
          "internalType": "string",
          "name": "_userId",
          "type": "string"
        },
        {
          "internalType": "string",
          "name": "_name",
          "type": "string"
        },
        {
          "internalType": "string",
          "name": "_description",
          "type": "string"
        },
        {
          "internalType": "uint256",
          "name": "_price",
          "type": "uint256"
        },
        {
          "internalType": "string",
          "name": "_assetUrl",
          "type": "string"
        }
      ],
      "name": "listAsset",
      "outputs": [],
      "stateMutability": "nonpayable",
      "type": "function"
    },
    {
      "inputs": [
        {
          "internalType": "uint256",
          "name": "_id",
          "type": "uint256"
        },
        {
          "internalType": "string",
          "name": "_userId",
          "type": "string"
        }
      ],
      "name": "purchaseAsset",
      "outputs": [],
      "stateMutability": "payable",
      "type": "function"
    }
  ],
  "bytecode": "0x6080604052348015600f57600080fd5b506118e48061001f6000396000f3fe60806040526004361061003f5760003560e01c806316aa11c2146100445780639a9a4c7314610081578063bc5edbf41461009d578063cf35bdd0146100c6575b600080fd5b34801561005057600080fd5b5061006b60048036038101906100669190610d4a565b61010a565b604051610078919061100e565b60405180910390f35b61009b6004803603810190610096919061105c565b6104d8565b005b3480156100a957600080fd5b506100c460048036038101906100bf91906110b8565b6106d7565b005b3480156100d257600080fd5b506100ed60048036038101906100e891906111a3565b6108fe565b604051610101989796959493929190611247565b60405180910390f35b6060600060028360405161011e919061131d565b908152602001604051809103902090506000818054905067ffffffffffffffff81111561014e5761014d610c1f565b5b60405190808252806020026020018201604052801561018757816020015b610174610b93565b81526020019060019003908161016c5790505b50905060005b82805490508110156104cd57600160008483815481106101b0576101af611334565b5b9060005260206000200154815260200190815260200160002060405180610100016040529081600082015481526020016001820180546101ef90611392565b80601f016020809104026020016040519081016040528092919081815260200182805461021b90611392565b80156102685780601f1061023d57610100808354040283529160200191610268565b820191906000526020600020905b81548152906001019060200180831161024b57829003601f168201915b5050505050815260200160028201805461028190611392565b80601f01602080910402602001604051908101604052809291908181526020018280546102ad90611392565b80156102fa5780601f106102cf576101008083540402835291602001916102fa565b820191906000526020600020905b8154815290600101906020018083116102dd57829003601f168201915b505050505081526020016003820154815260200160048201805461031d90611392565b80601f016020809104026020016040519081016040528092919081815260200182805461034990611392565b80156103965780601f1061036b57610100808354040283529160200191610396565b820191906000526020600020905b81548152906001019060200180831161037957829003601f168201915b505050505081526020016005820180546103af90611392565b80601f01602080910402602001604051908101604052809291908181526020018280546103db90611392565b80156104285780601f106103fd57610100808354040283529160200191610428565b820191906000526020600020905b81548152906001019060200180831161040b57829003601f168201915b505050505081526020016006820160009054906101000a900473ffffffffffffffffffffffffffffffffffffffff1673ffffffffffffffffffffffffffffffffffffffff1673ffffffffffffffffffffffffffffffffffffffff1681526020016006820160149054906101000a900460ff1615151515815250508282815181106104b5576104b4611334565b5b6020026020010181905250808060010191505061018d565b508092505050919050565b60006001600084815260200190815260200160002090508060060160149054906101000a900460ff1615610541576040517f08c379a00000000000000000000000000000000000000000000000000000000081526004016105389061140f565b60405180910390fd5b80600301543414610587576040517f08c379a000000000000000000000000000000000000000000000000000000000815260040161057e9061147b565b60405180910390fd5b8060060160009054906101000a900473ffffffffffffffffffffffffffffffffffffffff1673ffffffffffffffffffffffffffffffffffffffff166108fc349081150290604051600060405180830381858888f193505050501580156105f1573d6000803e3d6000fd5b50338160060160006101000a81548173ffffffffffffffffffffffffffffffffffffffff021916908373ffffffffffffffffffffffffffffffffffffffff16021790555060018160060160146101000a81548160ff021916908315150217905550600282604051610662919061131d565b90815260200160405180910390208390806001815401808255809150506001900390600052602060002001600090919091909150557f5a382df6f180816068446ad038db2c1b3079d40496baec595cc217b25baaeb1f8383336040516106ca939291906114bc565b60405180910390a1505050565b6000821161071a576040517f08c379a000000000000000000000000000000000000000000000000000000000815260040161071190611546565b60405180910390fd5b60008081548092919061072c90611595565b91905055506040518061010001604052806000548152602001858152602001848152602001838152602001828152602001868152602001600073ffffffffffffffffffffffffffffffffffffffff1681526020016000151581525060016000805481526020019081526020016000206000820151816000015560208201518160010190816107ba9190611789565b5060408201518160020190816107d09190611789565b506060820151816003015560808201518160040190816107f09190611789565b5060a08201518160050190816108069190611789565b5060c08201518160060160006101000a81548173ffffffffffffffffffffffffffffffffffffffff021916908373ffffffffffffffffffffffffffffffffffffffff16021790555060e08201518160060160146101000a81548160ff021916908315150217905550905050600285604051610881919061131d565b908152602001604051809103902060005490806001815401808255809150506001900390600052602060002001600090919091909150557f7022affff81ddecba567e3f08dcfe091e84b14d863edebe935ad0ad070c4d6b76000548584886040516108ef949392919061185b565b60405180910390a15050505050565b600160205280600052604060002060009150905080600001549080600101805461092790611392565b80601f016020809104026020016040519081016040528092919081815260200182805461095390611392565b80156109a05780601f10610975576101008083540402835291602001916109a0565b820191906000526020600020905b81548152906001019060200180831161098357829003601f168201915b5050505050908060020180546109b590611392565b80601f01602080910402602001604051908101604052809291908181526020018280546109e190611392565b8015610a2e5780601f10610a0357610100808354040283529160200191610a2e565b820191906000526020600020905b815481529060010190602001808311610a1157829003601f168201915b505050505090806003015490806004018054610a4990611392565b80601f0160208091040260200160405190810160405280929190818152602001828054610a7590611392565b8015610ac25780601f10610a9757610100808354040283529160200191610ac2565b820191906000526020600020905b815481529060010190602001808311610aa557829003601f168201915b505050505090806005018054610ad790611392565b80601f0160208091040260200160405190810160405280929190818152602001828054610b0390611392565b8015610b505780601f10610b2557610100808354040283529160200191610b50565b820191906000526020600020905b815481529060010190602001808311610b3357829003601f168201915b5050505050908060060160009054906101000a900473ffffffffffffffffffffffffffffffffffffffff16908060060160149054906101000a900460ff16905088565b604051806101000160405280600081526020016060815260200160608152602001600081526020016060815260200160608152602001600073ffffffffffffffffffffffffffffffffffffffff1681526020016000151581525090565b6000604051905090565b600080fd5b600080fd5b600080fd5b600080fd5b6000601f19601f8301169050919050565b7f4e487b7100000000000000000000000000000000000000000000000000000000600052604160045260246000fd5b610c5782610c0e565b810181811067ffffffffffffffff82111715610c7657610c75610c1f565b5b80604052505050565b6000610c89610bf0565b9050610c958282610c4e565b919050565b600067ffffffffffffffff821115610cb557610cb4610c1f565b5b610cbe82610c0e565b9050602081019050919050565b82818337600083830152505050565b6000610ced610ce884610c9a565b610c7f565b905082815260208101848484011115610d0957610d08610c09565b5b610d14848285610ccb565b509392505050565b600082601f830112610d3157610d30610c04565b5b8135610d41848260208601610cda565b91505092915050565b600060208284031215610d6057610d5f610bfa565b5b600082013567ffffffffffffffff811115610d7e57610d7d610bff565b5b610d8a84828501610d1c565b91505092915050565b600081519050919050565b600082825260208201905092915050565b6000819050602082019050919050565b6000819050919050565b610dd281610dbf565b82525050565b600081519050919050565b600082825260208201905092915050565b60005b83811015610e12578082015181840152602081019050610df7565b60008484015250505050565b6000610e2982610dd8565b610e338185610de3565b9350610e43818560208601610df4565b610e4c81610c0e565b840191505092915050565b600073ffffffffffffffffffffffffffffffffffffffff82169050919050565b6000610e8282610e57565b9050919050565b610e9281610e77565b82525050565b60008115159050919050565b610ead81610e98565b82525050565b600061010083016000830151610ecc6000860182610dc9565b5060208301518482036020860152610ee48282610e1e565b91505060408301518482036040860152610efe8282610e1e565b9150506060830151610f136060860182610dc9565b5060808301518482036080860152610f2b8282610e1e565b91505060a083015184820360a0860152610f458282610e1e565b91505060c0830151610f5a60c0860182610e89565b5060e0830151610f6d60e0860182610ea4565b508091505092915050565b6000610f848383610eb3565b905092915050565b6000602082019050919050565b6000610fa482610d93565b610fae8185610d9e565b935083602082028501610fc085610daf565b8060005b85811015610ffc5784840389528151610fdd8582610f78565b9450610fe883610f8c565b925060208a01995050600181019050610fc4565b50829750879550505050505092915050565b600060208201905081810360008301526110288184610f99565b905092915050565b61103981610dbf565b811461104457600080fd5b50565b60008135905061105681611030565b92915050565b6000806040838503121561107357611072610bfa565b5b600061108185828601611047565b925050602083013567ffffffffffffffff8111156110a2576110a1610bff565b5b6110ae85828601610d1c565b9150509250929050565b600080600080600060a086880312156110d4576110d3610bfa565b5b600086013567ffffffffffffffff8111156110f2576110f1610bff565b5b6110fe88828901610d1c565b955050602086013567ffffffffffffffff81111561111f5761111e610bff565b5b61112b88828901610d1c565b945050604086013567ffffffffffffffff81111561114c5761114b610bff565b5b61115888828901610d1c565b935050606061116988828901611047565b925050608086013567ffffffffffffffff81111561118a57611189610bff565b5b61119688828901610d1c565b9150509295509295909350565b6000602082840312156111b9576111b8610bfa565b5b60006111c784828501611047565b91505092915050565b6111d981610dbf565b82525050565b600082825260208201905092915050565b60006111fb82610dd8565b61120581856111df565b9350611215818560208601610df4565b61121e81610c0e565b840191505092915050565b61123281610e77565b82525050565b61124181610e98565b82525050565b60006101008201905061125d600083018b6111d0565b818103602083015261126f818a6111f0565b9050818103604083015261128381896111f0565b905061129260608301886111d0565b81810360808301526112a481876111f0565b905081810360a08301526112b881866111f0565b90506112c760c0830185611229565b6112d460e0830184611238565b9998505050505050505050565b600081905092915050565b60006112f782610dd8565b61130181856112e1565b9350611311818560208601610df4565b80840191505092915050565b600061132982846112ec565b915081905092915050565b7f4e487b7100000000000000000000000000000000000000000000000000000000600052603260045260246000fd5b7f4e487b7100000000000000000000000000000000000000000000000000000000600052602260045260246000fd5b600060028204905060018216806113aa57607f821691505b6020821081036113bd576113bc611363565b5b50919050565b7f417373657420616c726561647920736f6c640000000000000000000000000000600082015250565b60006113f96012836111df565b9150611404826113c3565b602082019050919050565b60006020820190508181036000830152611428816113ec565b9050919050565b7f496e636f7272656374207061796d656e7420616d6f756e740000000000000000600082015250565b60006114656018836111df565b91506114708261142f565b602082019050919050565b6000602082019050818103600083015261149481611458565b9050919050565b60006114a682610e57565b9050919050565b6114b68161149b565b82525050565b60006060820190506114d160008301866111d0565b81810360208301526114e381856111f0565b90506114f260408301846114ad565b949350505050565b7f5072696365206d7573742062652067726561746572207468616e203000000000600082015250565b6000611530601c836111df565b915061153b826114fa565b602082019050919050565b6000602082019050818103600083015261155f81611523565b9050919050565b7f4e487b7100000000000000000000000000000000000000000000000000000000600052601160045260246000fd5b60006115a082610dbf565b91507fffffffffffffffffffffffffffffffffffffffffffffffffffffffffffffffff82036115d2576115d1611566565b5b600182019050919050565b60008190508160005260206000209050919050565b60006020601f8301049050919050565b600082821b905092915050565b60006008830261163f7fffffffffffffffffffffffffffffffffffffffffffffffffffffffffffffffff82611602565b6116498683611602565b95508019841693508086168417925050509392505050565b6000819050919050565b600061168661168161167c84610dbf565b611661565b610dbf565b9050919050565b6000819050919050565b6116a08361166b565b6116b46116ac8261168d565b84845461160f565b825550505050565b600090565b6116c96116bc565b6116d4818484611697565b505050565b5b818110156116f8576116ed6000826116c1565b6001810190506116da565b5050565b601f82111561173d5761170e816115dd565b611717846115f2565b81016020851015611726578190505b61173a611732856115f2565b8301826116d9565b50505b505050565b600082821c905092915050565b600061176060001984600802611742565b1980831691505092915050565b6000611779838361174f565b9150826002028217905092915050565b61179282610dd8565b67ffffffffffffffff8111156117ab576117aa610c1f565b5b6117b58254611392565b6117c08282856116fc565b600060209050601f8311600181146117f357600084156117e1578287015190505b6117eb858261176d565b865550611853565b601f198416611801866115dd565b60005b8281101561182957848901518255600182019150602085019450602081019050611804565b868310156118465784890151611842601f89168261174f565b8355505b6001600288020188555050505b505050505050565b600060808201905061187060008301876111d0565b818103602083015261188281866111f0565b905061189160408301856111d0565b81810360608301526118a381846111f0565b90509594505050505056fea2646970667358221220e6137325005aa7731846ba6b4fb4b47d403410bf1204ae87d673bf37b073357d64736f6c634300081c0033",
  "linkReferences": {},
  "deployedLinkReferences": {}
}