{
  "_format": "hh-sol-artifact-1",
  "contractName": "AssetMarketplace",
  "sourceName": "contracts/AssetMarketplace.sol",
  "abi": [
    {
      "inputs": [],
      "name": "InvalidInitialization",
      "type": "error"
    },
    {
      "inputs": [],
      "name": "NotInitializing",
      "type": "error"
    },
    {
      "anonymous": false,
      "inputs": [
        {
          "indexed": false,
          "internalType": "uint256",
          "name": "id",
          "type": "uint256"
        },
        {
          "indexed": false,
          "internalType": "bool",
          "name": "isListed",
          "type": "bool"
        }
      ],
      "name": "AssetListStatusUpdated",
      "type": "event"
    },
    {
      "anonymous": false,
      "inputs": [
        {
          "indexed": false,
          "internalType": "uint256",
          "name": "id",
          "type": "uint256"
        },
        {
          "indexed": false,
          "internalType": "string",
          "name": "name",
          "type": "string"
        },
        {
          "indexed": false,
          "internalType": "uint256",
          "name": "price",
          "type": "uint256"
        },
        {
          "indexed": false,
          "internalType": "string",
          "name": "userId",
          "type": "string"
        }
      ],
      "name": "AssetListed",
      "type": "event"
    },
    {
      "anonymous": false,
      "inputs": [
        {
          "indexed": false,
          "internalType": "uint256",
          "name": "id",
          "type": "uint256"
        },
        {
          "indexed": false,
          "internalType": "string",
          "name": "userId",
          "type": "string"
        },
        {
          "indexed": false,
          "internalType": "address",
          "name": "wallet",
          "type": "address"
        },
        {
          "indexed": false,
          "internalType": "uint256",
          "name": "price",
          "type": "uint256"
        }
      ],
      "name": "AssetPurchased",
      "type": "event"
    },
    {
      "anonymous": false,
      "inputs": [
        {
          "indexed": true,
          "internalType": "address",
          "name": "creator",
          "type": "address"
        },
        {
          "indexed": false,
          "internalType": "uint256",
          "name": "amount",
          "type": "uint256"
        }
      ],
      "name": "CreatorEarnings",
      "type": "event"
    },
    {
      "anonymous": false,
      "inputs": [
        {
          "indexed": false,
          "internalType": "uint64",
          "name": "version",
          "type": "uint64"
        }
      ],
      "name": "Initialized",
      "type": "event"
    },
    {
      "inputs": [
        {
          "internalType": "uint256",
          "name": "",
          "type": "uint256"
        }
      ],
      "name": "assets",
      "outputs": [
        {
          "internalType": "uint256",
          "name": "id",
          "type": "uint256"
        },
        {
          "internalType": "string",
          "name": "name",
          "type": "string"
        },
        {
          "internalType": "string",
          "name": "description",
          "type": "string"
        },
        {
          "internalType": "uint256",
          "name": "price",
          "type": "uint256"
        },
        {
          "internalType": "string",
          "name": "assetUrl",
          "type": "string"
        },
        {
          "internalType": "string",
          "name": "userId",
          "type": "string"
        },
        {
          "internalType": "address payable",
          "name": "currentWallet",
          "type": "address"
        },
        {
          "internalType": "bool",
          "name": "isSold",
          "type": "bool"
        },
        {
          "internalType": "bool",
          "name": "isListed",
          "type": "bool"
        },
        {
          "internalType": "address",
          "name": "creator",
          "type": "address"
        }
      ],
      "stateMutability": "view",
      "type": "function"
    },
    {
      "inputs": [
        {
          "internalType": "address",
          "name": "",
          "type": "address"
        }
      ],
      "name": "creatorEarnings",
      "outputs": [
        {
          "internalType": "uint256",
          "name": "",
          "type": "uint256"
        }
      ],
      "stateMutability": "view",
      "type": "function"
    },
    {
      "inputs": [
        {
          "internalType": "uint256",
          "name": "_id",
          "type": "uint256"
        }
      ],
      "name": "delistAsset",
      "outputs": [],
      "stateMutability": "nonpayable",
      "type": "function"
    },
    {
      "inputs": [],
      "name": "getAssetCounter",
      "outputs": [
        {
          "internalType": "uint256",
          "name": "",
          "type": "uint256"
        }
      ],
      "stateMutability": "view",
      "type": "function"
    },
    {
      "inputs": [],
      "name": "getCreatorEarnings",
      "outputs": [
        {
          "internalType": "uint256",
          "name": "",
          "type": "uint256"
        }
      ],
      "stateMutability": "view",
      "type": "function"
    },
    {
      "inputs": [
        {
          "internalType": "string",
          "name": "_userId",
          "type": "string"
        }
      ],
      "name": "getUserAssets",
      "outputs": [
        {
          "components": [
            {
              "internalType": "uint256",
              "name": "id",
              "type": "uint256"
            },
            {
              "internalType": "string",
              "name": "name",
              "type": "string"
            },
            {
              "internalType": "string",
              "name": "description",
              "type": "string"
            },
            {
              "internalType": "uint256",
              "name": "price",
              "type": "uint256"
            },
            {
              "internalType": "string",
              "name": "assetUrl",
              "type": "string"
            },
            {
              "internalType": "string",
              "name": "userId",
              "type": "string"
            },
            {
              "internalType": "address payable",
              "name": "currentWallet",
              "type": "address"
            },
            {
              "internalType": "bool",
              "name": "isSold",
              "type": "bool"
            },
            {
              "internalType": "bool",
              "name": "isListed",
              "type": "bool"
            },
            {
              "internalType": "address",
              "name": "creator",
              "type": "address"
            }
          ],
          "internalType": "struct AssetMarketplace.Asset[]",
          "name": "",
          "type": "tuple[]"
        }
      ],
      "stateMutability": "view",
      "type": "function"
    },
    {
      "inputs": [],
      "name": "initialize",
      "outputs": [],
      "stateMutability": "nonpayable",
      "type": "function"
    },
    {
      "inputs": [
        {
          "internalType": "uint256",
          "name": "_id",
          "type": "uint256"
        }
      ],
      "name": "isAssetListed",
      "outputs": [
        {
          "internalType": "bool",
          "name": "",
          "type": "bool"
        }
      ],
      "stateMutability": "view",
      "type": "function"
    },
    {
      "inputs": [
        {
          "internalType": "uint256",
          "name": "_id",
          "type": "uint256"
        },
        {
          "internalType": "string",
          "name": "_userId",
          "type": "string"
        },
        {
          "internalType": "string",
          "name": "_name",
          "type": "string"
        },
        {
          "internalType": "string",
          "name": "_description",
          "type": "string"
        },
        {
          "internalType": "uint256",
          "name": "_price",
          "type": "uint256"
        },
        {
          "internalType": "string",
          "name": "_assetUrl",
          "type": "string"
        }
      ],
      "name": "listAsset",
      "outputs": [],
      "stateMutability": "nonpayable",
      "type": "function"
    },
    {
      "inputs": [
        {
          "internalType": "uint256",
          "name": "_id",
          "type": "uint256"
        },
        {
          "internalType": "string",
          "name": "_userId",
          "type": "string"
        }
      ],
      "name": "purchaseAsset",
      "outputs": [],
      "stateMutability": "payable",
      "type": "function"
    }
  ],
  "bytecode": "0x6080604052348015600f57600080fd5b50612be08061001f6000396000f3fe6080604052600436106100915760003560e01c80638129fc1c116100595780638129fc1c1461018d578063833d99e7146101a45780639a9a4c73146101cf578063cf35bdd0146101eb578063fa3c30a81461023157610091565b8063107c39751461009657806316aa11c2146100bf5780634090a26f146100fc57806343d7c7781461013957806350d6b88a14610162575b600080fd5b3480156100a257600080fd5b506100bd60048036038101906100b891906119a8565b61026e565b005b3480156100cb57600080fd5b506100e660048036038101906100e19190611aa5565b61079e565b6040516100f39190611daa565b60405180910390f35b34801561010857600080fd5b50610123600480360381019061011e9190611dcc565b610bdd565b6040516101309190611e08565b60405180910390f35b34801561014557600080fd5b50610160600480360381019061015b9190611dcc565b610c0a565b005b34801561016e57600080fd5b50610177610d1f565b6040516101849190611e32565b60405180910390f35b34801561019957600080fd5b506101a2610d28565b005b3480156101b057600080fd5b506101b9610eb4565b6040516101c69190611e32565b60405180910390f35b6101e960048036038101906101e49190611e4d565b610efb565b005b3480156101f757600080fd5b50610212600480360381019061020d9190611dcc565b611487565b6040516102289a99989796959493929190611f11565b60405180910390f35b34801561023d57600080fd5b5061025860048036038101906102539190611ff5565b611755565b6040516102659190611e32565b60405180910390f35b600082116102b1576040517f08c379a00000000000000000000000000000000000000000000000000000000081526004016102a89061206e565b60405180910390fd5b60008451116102f5576040517f08c379a00000000000000000000000000000000000000000000000000000000081526004016102ec906120da565b60405180910390fd5b6000835111610339576040517f08c379a000000000000000000000000000000000000000000000000000000000815260040161033090612146565b60405180910390fd5b600081511161037d576040517f08c379a0000000000000000000000000000000000000000000000000000000008152600401610374906121b2565b60405180910390fd5b60008611801561038f57506000548611155b1561052b5760006001600088815260200190815260200160002090503373ffffffffffffffffffffffffffffffffffffffff168160070160009054906101000a900473ffffffffffffffffffffffffffffffffffffffff1673ffffffffffffffffffffffffffffffffffffffff161461043d576040517f08c379a000000000000000000000000000000000000000000000000000000000815260040161043490612244565b60405180910390fd5b8060060160149054906101000a900460ff161561048f576040517f08c379a0000000000000000000000000000000000000000000000000000000008152600401610486906122b0565b60405180910390fd5b848160010190816104a091906124dc565b50838160020190816104b291906124dc565b50828160030181905550818160040190816104cd91906124dc565b5060018160060160156101000a81548160ff0219169083151502179055507fd50a27e3b9691b827c539327cb063704ae22039ae9c907e3e0606e9a5eaa2aee87600160405161051d9291906125ae565b60405180910390a150610796565b60008081548092919061053d90612606565b919050555060405180610140016040528060005481526020018581526020018481526020018381526020018281526020018681526020013373ffffffffffffffffffffffffffffffffffffffff1681526020016000151581526020016001151581526020013373ffffffffffffffffffffffffffffffffffffffff1681525060016000805481526020019081526020016000206000820151816000015560208201518160010190816105ef91906124dc565b50604082015181600201908161060591906124dc565b5060608201518160030155608082015181600401908161062591906124dc565b5060a082015181600501908161063b91906124dc565b5060c08201518160060160006101000a81548173ffffffffffffffffffffffffffffffffffffffff021916908373ffffffffffffffffffffffffffffffffffffffff16021790555060e08201518160060160146101000a81548160ff0219169083151502179055506101008201518160060160156101000a81548160ff0219169083151502179055506101208201518160070160006101000a81548173ffffffffffffffffffffffffffffffffffffffff021916908373ffffffffffffffffffffffffffffffffffffffff16021790555090505060028560405161071f919061268a565b908152602001604051809103902060005490806001815401808255809150506001900390600052602060002001600090919091909150557f7022affff81ddecba567e3f08dcfe091e84b14d863edebe935ad0ad070c4d6b760005485848860405161078d94939291906126a1565b60405180910390a15b505050505050565b606060006002836040516107b2919061268a565b908152602001604051809103902090506000818054905067ffffffffffffffff8111156107e2576107e161187d565b5b60405190808252806020026020018201604052801561081b57816020015b610808611795565b8152602001906001900390816108005790505b50905060005b8280549050811015610bd25760016000848381548110610844576108436126f4565b5b906000526020600020015481526020019081526020016000206040518061014001604052908160008201548152602001600182018054610883906122ff565b80601f01602080910402602001604051908101604052809291908181526020018280546108af906122ff565b80156108fc5780601f106108d1576101008083540402835291602001916108fc565b820191906000526020600020905b8154815290600101906020018083116108df57829003601f168201915b50505050508152602001600282018054610915906122ff565b80601f0160208091040260200160405190810160405280929190818152602001828054610941906122ff565b801561098e5780601f106109635761010080835404028352916020019161098e565b820191906000526020600020905b81548152906001019060200180831161097157829003601f168201915b50505050508152602001600382015481526020016004820180546109b1906122ff565b80601f01602080910402602001604051908101604052809291908181526020018280546109dd906122ff565b8015610a2a5780601f106109ff57610100808354040283529160200191610a2a565b820191906000526020600020905b815481529060010190602001808311610a0d57829003601f168201915b50505050508152602001600582018054610a43906122ff565b80601f0160208091040260200160405190810160405280929190818152602001828054610a6f906122ff565b8015610abc5780601f10610a9157610100808354040283529160200191610abc565b820191906000526020600020905b815481529060010190602001808311610a9f57829003601f168201915b505050505081526020016006820160009054906101000a900473ffffffffffffffffffffffffffffffffffffffff1673ffffffffffffffffffffffffffffffffffffffff1673ffffffffffffffffffffffffffffffffffffffff1681526020016006820160149054906101000a900460ff161515151581526020016006820160159054906101000a900460ff161515151581526020016007820160009054906101000a900473ffffffffffffffffffffffffffffffffffffffff1673ffffffffffffffffffffffffffffffffffffffff1673ffffffffffffffffffffffffffffffffffffffff1681525050828281518110610bba57610bb96126f4565b5b60200260200101819052508080600101915050610821565b508092505050919050565b60006001600083815260200190815260200160002060060160159054906101000a900460ff169050919050565b60006001600083815260200190815260200160002090508060060160159054906101000a900460ff16610c72576040517f08c379a0000000000000000000000000000000000000000000000000000000008152600401610c699061276f565b60405180910390fd5b8060060160149054906101000a900460ff1615610cc4576040517f08c379a0000000000000000000000000000000000000000000000000000000008152600401610cbb906127db565b60405180910390fd5b60008160060160156101000a81548160ff0219169083151502179055507fd50a27e3b9691b827c539327cb063704ae22039ae9c907e3e0606e9a5eaa2aee826000604051610d139291906125ae565b60405180910390a15050565b60008054905090565b6000610d3261176d565b905060008160000160089054906101000a900460ff1615905060008260000160009054906101000a900467ffffffffffffffff1690506000808267ffffffffffffffff16148015610d805750825b9050600060018367ffffffffffffffff16148015610db5575060003073ffffffffffffffffffffffffffffffffffffffff163b145b905081158015610dc3575080155b15610dfa576040517ff92ee8a900000000000000000000000000000000000000000000000000000000815260040160405180910390fd5b60018560000160006101000a81548167ffffffffffffffff021916908367ffffffffffffffff1602179055508315610e4a5760018560000160086101000a81548160ff0219169083151502179055505b600080819055508315610ead5760008560000160086101000a81548160ff0219169083151502179055507fc7f505b2f371ae2175ee4913f4499e1f2633a7b5936321eed1cdaeb6115181d26001604051610ea4919061284a565b60405180910390a15b5050505050565b6000600360003373ffffffffffffffffffffffffffffffffffffffff1673ffffffffffffffffffffffffffffffffffffffff16815260200190815260200160002054905090565b60006001600084815260200190815260200160002090508060060160149054906101000a900460ff1615610f64576040517f08c379a0000000000000000000000000000000000000000000000000000000008152600401610f5b906128b1565b60405180910390fd5b80600301543414610faa576040517f08c379a0000000000000000000000000000000000000000000000000000000008152600401610fa19061291d565b60405180910390fd5b6000825111610fee576040517f08c379a0000000000000000000000000000000000000000000000000000000008152600401610fe590612989565b60405180910390fd5b8060060160159054906101000a900460ff1661103f576040517f08c379a0000000000000000000000000000000000000000000000000000000008152600401611036906129f5565b60405180910390fd5b60008160070160009054906101000a900473ffffffffffffffffffffffffffffffffffffffff1673ffffffffffffffffffffffffffffffffffffffff163460405161108990612a46565b60006040518083038185875af1925050503d80600081146110c6576040519150601f19603f3d011682016040523d82523d6000602084013e6110cb565b606091505b505090508061110f576040517f08c379a000000000000000000000000000000000000000000000000000000000815260040161110690612aa7565b60405180910390fd5b34600360008460070160009054906101000a900473ffffffffffffffffffffffffffffffffffffffff1673ffffffffffffffffffffffffffffffffffffffff1673ffffffffffffffffffffffffffffffffffffffff16815260200190815260200160002060008282546111829190612ac7565b925050819055508160070160009054906101000a900473ffffffffffffffffffffffffffffffffffffffff1673ffffffffffffffffffffffffffffffffffffffff167fb3211638eadf8fe8db4a7f22f4d0857583129e0bba88bf448227973f2d9443d2346040516111f39190611e32565b60405180910390a2600082600501805461120c906122ff565b80601f0160208091040260200160405190810160405280929190818152602001828054611238906122ff565b80156112855780601f1061125a57610100808354040283529160200191611285565b820191906000526020600020905b81548152906001019060200180831161126857829003601f168201915b50505050509050338360060160006101000a81548173ffffffffffffffffffffffffffffffffffffffff021916908373ffffffffffffffffffffffffffffffffffffffff16021790555060018360060160146101000a81548160ff02191690831515021790555060008360060160156101000a81548160ff0219169083151502179055508383600501908161131a91906124dc565b50600060028260405161132d919061268a565b9081526020016040518091039020905060005b81805490508110156113f857868282815481106113605761135f6126f4565b5b9060005260206000200154036113eb5781600183805490506113829190612afb565b81548110611393576113926126f4565b5b90600052602060002001548282815481106113b1576113b06126f4565b5b9060005260206000200181905550818054806113d0576113cf612b2f565b5b600190038181906000526020600020016000905590556113f8565b8080600101915050611340565b50600285604051611409919061268a565b90815260200160405180910390208690806001815401808255809150506001900390600052602060002001600090919091909150557faa1aaf83c548988ee15ab834b8027fb3a437218d81b9417f7c44875f8309095286863387600301546040516114779493929190612b5e565b60405180910390a1505050505050565b60016020528060005260406000206000915090508060000154908060010180546114b0906122ff565b80601f01602080910402602001604051908101604052809291908181526020018280546114dc906122ff565b80156115295780601f106114fe57610100808354040283529160200191611529565b820191906000526020600020905b81548152906001019060200180831161150c57829003601f168201915b50505050509080600201805461153e906122ff565b80601f016020809104026020016040519081016040528092919081815260200182805461156a906122ff565b80156115b75780601f1061158c576101008083540402835291602001916115b7565b820191906000526020600020905b81548152906001019060200180831161159a57829003601f168201915b5050505050908060030154908060040180546115d2906122ff565b80601f01602080910402602001604051908101604052809291908181526020018280546115fe906122ff565b801561164b5780601f106116205761010080835404028352916020019161164b565b820191906000526020600020905b81548152906001019060200180831161162e57829003601f168201915b505050505090806005018054611660906122ff565b80601f016020809104026020016040519081016040528092919081815260200182805461168c906122ff565b80156116d95780601f106116ae576101008083540402835291602001916116d9565b820191906000526020600020905b8154815290600101906020018083116116bc57829003601f168201915b5050505050908060060160009054906101000a900473ffffffffffffffffffffffffffffffffffffffff16908060060160149054906101000a900460ff16908060060160159054906101000a900460ff16908060070160009054906101000a900473ffffffffffffffffffffffffffffffffffffffff1690508a565b60036020528060005260406000206000915090505481565b60007ff0c57e16840df040f15088dc2f81fe391c3923bec73e23a9662efc9c229c6a00905090565b604051806101400160405280600081526020016060815260200160608152602001600081526020016060815260200160608152602001600073ffffffffffffffffffffffffffffffffffffffff168152602001600015158152602001600015158152602001600073ffffffffffffffffffffffffffffffffffffffff1681525090565b6000604051905090565b600080fd5b600080fd5b6000819050919050565b61183f8161182c565b811461184a57600080fd5b50565b60008135905061185c81611836565b92915050565b600080fd5b600080fd5b6000601f19601f8301169050919050565b7f4e487b7100000000000000000000000000000000000000000000000000000000600052604160045260246000fd5b6118b58261186c565b810181811067ffffffffffffffff821117156118d4576118d361187d565b5b80604052505050565b60006118e7611818565b90506118f382826118ac565b919050565b600067ffffffffffffffff8211156119135761191261187d565b5b61191c8261186c565b9050602081019050919050565b82818337600083830152505050565b600061194b611946846118f8565b6118dd565b90508281526020810184848401111561196757611966611867565b5b611972848285611929565b509392505050565b600082601f83011261198f5761198e611862565b5b813561199f848260208601611938565b91505092915050565b60008060008060008060c087890312156119c5576119c4611822565b5b60006119d389828a0161184d565b965050602087013567ffffffffffffffff8111156119f4576119f3611827565b5b611a0089828a0161197a565b955050604087013567ffffffffffffffff811115611a2157611a20611827565b5b611a2d89828a0161197a565b945050606087013567ffffffffffffffff811115611a4e57611a4d611827565b5b611a5a89828a0161197a565b9350506080611a6b89828a0161184d565b92505060a087013567ffffffffffffffff811115611a8c57611a8b611827565b5b611a9889828a0161197a565b9150509295509295509295565b600060208284031215611abb57611aba611822565b5b600082013567ffffffffffffffff811115611ad957611ad8611827565b5b611ae58482850161197a565b91505092915050565b600081519050919050565b600082825260208201905092915050565b6000819050602082019050919050565b611b238161182c565b82525050565b600081519050919050565b600082825260208201905092915050565b60005b83811015611b63578082015181840152602081019050611b48565b60008484015250505050565b6000611b7a82611b29565b611b848185611b34565b9350611b94818560208601611b45565b611b9d8161186c565b840191505092915050565b600073ffffffffffffffffffffffffffffffffffffffff82169050919050565b6000611bd382611ba8565b9050919050565b611be381611bc8565b82525050565b60008115159050919050565b611bfe81611be9565b82525050565b6000611c0f82611ba8565b9050919050565b611c1f81611c04565b82525050565b600061014083016000830151611c3e6000860182611b1a565b5060208301518482036020860152611c568282611b6f565b91505060408301518482036040860152611c708282611b6f565b9150506060830151611c856060860182611b1a565b5060808301518482036080860152611c9d8282611b6f565b91505060a083015184820360a0860152611cb78282611b6f565b91505060c0830151611ccc60c0860182611bda565b5060e0830151611cdf60e0860182611bf5565b50610100830151611cf4610100860182611bf5565b50610120830151611d09610120860182611c16565b508091505092915050565b6000611d208383611c25565b905092915050565b6000602082019050919050565b6000611d4082611aee565b611d4a8185611af9565b935083602082028501611d5c85611b0a565b8060005b85811015611d985784840389528151611d798582611d14565b9450611d8483611d28565b925060208a01995050600181019050611d60565b50829750879550505050505092915050565b60006020820190508181036000830152611dc48184611d35565b905092915050565b600060208284031215611de257611de1611822565b5b6000611df08482850161184d565b91505092915050565b611e0281611be9565b82525050565b6000602082019050611e1d6000830184611df9565b92915050565b611e2c8161182c565b82525050565b6000602082019050611e476000830184611e23565b92915050565b60008060408385031215611e6457611e63611822565b5b6000611e728582860161184d565b925050602083013567ffffffffffffffff811115611e9357611e92611827565b5b611e9f8582860161197a565b9150509250929050565b600082825260208201905092915050565b6000611ec582611b29565b611ecf8185611ea9565b9350611edf818560208601611b45565b611ee88161186c565b840191505092915050565b611efc81611bc8565b82525050565b611f0b81611c04565b82525050565b600061014082019050611f27600083018d611e23565b8181036020830152611f39818c611eba565b90508181036040830152611f4d818b611eba565b9050611f5c606083018a611e23565b8181036080830152611f6e8189611eba565b905081810360a0830152611f828188611eba565b9050611f9160c0830187611ef3565b611f9e60e0830186611df9565b611fac610100830185611df9565b611fba610120830184611f02565b9b9a5050505050505050505050565b611fd281611c04565b8114611fdd57600080fd5b50565b600081359050611fef81611fc9565b92915050565b60006020828403121561200b5761200a611822565b5b600061201984828501611fe0565b91505092915050565b7f5072696365206d7573742062652067726561746572207468616e203000000000600082015250565b6000612058601c83611ea9565b915061206382612022565b602082019050919050565b600060208201905081810360008301526120878161204b565b9050919050565b7f4e616d652063616e6e6f7420626520656d707479000000000000000000000000600082015250565b60006120c4601483611ea9565b91506120cf8261208e565b602082019050919050565b600060208201905081810360008301526120f3816120b7565b9050919050565b7f4465736372697074696f6e2063616e6e6f7420626520656d7074790000000000600082015250565b6000612130601b83611ea9565b915061213b826120fa565b602082019050919050565b6000602082019050818103600083015261215f81612123565b9050919050565b7f41737365742055524c2063616e6e6f7420626520656d70747900000000000000600082015250565b600061219c601983611ea9565b91506121a782612166565b602082019050919050565b600060208201905081810360008301526121cb8161218f565b9050919050565b7f4f6e6c79207468652063726561746f722063616e20757064617465207468697360008201527f2061737365740000000000000000000000000000000000000000000000000000602082015250565b600061222e602683611ea9565b9150612239826121d2565b604082019050919050565b6000602082019050818103600083015261225d81612221565b9050919050565b7f43616e6e6f7420757064617465206120736f6c64206173736574000000000000600082015250565b600061229a601a83611ea9565b91506122a582612264565b602082019050919050565b600060208201905081810360008301526122c98161228d565b9050919050565b7f4e487b7100000000000000000000000000000000000000000000000000000000600052602260045260246000fd5b6000600282049050600182168061231757607f821691505b60208210810361232a576123296122d0565b5b50919050565b60008190508160005260206000209050919050565b60006020601f8301049050919050565b600082821b905092915050565b6000600883026123927fffffffffffffffffffffffffffffffffffffffffffffffffffffffffffffffff82612355565b61239c8683612355565b95508019841693508086168417925050509392505050565b6000819050919050565b60006123d96123d46123cf8461182c565b6123b4565b61182c565b9050919050565b6000819050919050565b6123f3836123be565b6124076123ff826123e0565b848454612362565b825550505050565b600090565b61241c61240f565b6124278184846123ea565b505050565b5b8181101561244b57612440600082612414565b60018101905061242d565b5050565b601f8211156124905761246181612330565b61246a84612345565b81016020851015612479578190505b61248d61248585612345565b83018261242c565b50505b505050565b600082821c905092915050565b60006124b360001984600802612495565b1980831691505092915050565b60006124cc83836124a2565b9150826002028217905092915050565b6124e582611b29565b67ffffffffffffffff8111156124fe576124fd61187d565b5b61250882546122ff565b61251382828561244f565b600060209050601f8311600181146125465760008415612534578287015190505b61253e85826124c0565b8655506125a6565b601f19841661255486612330565b60005b8281101561257c57848901518255600182019150602085019450602081019050612557565b868310156125995784890151612595601f8916826124a2565b8355505b6001600288020188555050505b505050505050565b60006040820190506125c36000830185611e23565b6125d06020830184611df9565b9392505050565b7f4e487b7100000000000000000000000000000000000000000000000000000000600052601160045260246000fd5b60006126118261182c565b91507fffffffffffffffffffffffffffffffffffffffffffffffffffffffffffffffff8203612643576126426125d7565b5b600182019050919050565b600081905092915050565b600061266482611b29565b61266e818561264e565b935061267e818560208601611b45565b80840191505092915050565b60006126968284612659565b915081905092915050565b60006080820190506126b66000830187611e23565b81810360208301526126c88186611eba565b90506126d76040830185611e23565b81810360608301526126e98184611eba565b905095945050505050565b7f4e487b7100000000000000000000000000000000000000000000000000000000600052603260045260246000fd5b7f417373657420697320616c72656164792064656c697374656400000000000000600082015250565b6000612759601983611ea9565b915061276482612723565b602082019050919050565b600060208201905081810360008301526127888161274c565b9050919050565b7f43616e6e6f742064656c697374206120736f6c64206173736574000000000000600082015250565b60006127c5601a83611ea9565b91506127d08261278f565b602082019050919050565b600060208201905081810360008301526127f4816127b8565b9050919050565b6000819050919050565b600067ffffffffffffffff82169050919050565b600061283461282f61282a846127fb565b6123b4565b612805565b9050919050565b61284481612819565b82525050565b600060208201905061285f600083018461283b565b92915050565b7f417373657420616c726561647920736f6c640000000000000000000000000000600082015250565b600061289b601283611ea9565b91506128a682612865565b602082019050919050565b600060208201905081810360008301526128ca8161288e565b9050919050565b7f496e636f7272656374207061796d656e7420616d6f756e740000000000000000600082015250565b6000612907601883611ea9565b9150612912826128d1565b602082019050919050565b60006020820190508181036000830152612936816128fa565b9050919050565b7f557365722049442063616e6e6f7420626520656d707479000000000000000000600082015250565b6000612973601783611ea9565b915061297e8261293d565b602082019050919050565b600060208201905081810360008301526129a281612966565b9050919050565b7f4173736574206973206e6f74206c697374656400000000000000000000000000600082015250565b60006129df601383611ea9565b91506129ea826129a9565b602082019050919050565b60006020820190508181036000830152612a0e816129d2565b9050919050565b600081905092915050565b50565b6000612a30600083612a15565b9150612a3b82612a20565b600082019050919050565b6000612a5182612a23565b9150819050919050565b7f5472616e73666572206661696c65640000000000000000000000000000000000600082015250565b6000612a91600f83611ea9565b9150612a9c82612a5b565b602082019050919050565b60006020820190508181036000830152612ac081612a84565b9050919050565b6000612ad28261182c565b9150612add8361182c565b9250828201905080821115612af557612af46125d7565b5b92915050565b6000612b068261182c565b9150612b118361182c565b9250828203905081811115612b2957612b286125d7565b5b92915050565b7f4e487b7100000000000000000000000000000000000000000000000000000000600052603160045260246000fd5b6000608082019050612b736000830187611e23565b8181036020830152612b858186611eba565b9050612b946040830185611f02565b612ba16060830184611e23565b9594505050505056fea2646970667358221220852829de9e44dd1635b78c7c7aa810a1c9609c8fd5759437eba3481a7d35221964736f6c634300081c0033",
  "linkReferences": {},
  "deployedLinkReferences": {}
}