{
  "_format": "hh-sol-artifact-1",
  "contractName": "AssetMarketplace",
  "sourceName": "contracts/AssetMarketplace.sol",
  "abi": [
    {
      "inputs": [],
      "name": "InvalidInitialization",
      "type": "error"
    },
    {
      "inputs": [],
      "name": "NotInitializing",
      "type": "error"
    },
    {
      "anonymous": false,
      "inputs": [
        {
          "indexed": false,
          "internalType": "uint256",
          "name": "id",
          "type": "uint256"
        },
        {
          "indexed": false,
          "internalType": "bool",
          "name": "isListed",
          "type": "bool"
        }
      ],
      "name": "AssetListStatusUpdated",
      "type": "event"
    },
    {
      "anonymous": false,
      "inputs": [
        {
          "indexed": false,
          "internalType": "uint256",
          "name": "id",
          "type": "uint256"
        },
        {
          "indexed": false,
          "internalType": "string",
          "name": "name",
          "type": "string"
        },
        {
          "indexed": false,
          "internalType": "uint256",
          "name": "price",
          "type": "uint256"
        },
        {
          "indexed": false,
          "internalType": "string",
          "name": "userId",
          "type": "string"
        }
      ],
      "name": "AssetListed",
      "type": "event"
    },
    {
      "anonymous": false,
      "inputs": [
        {
          "indexed": false,
          "internalType": "uint256",
          "name": "id",
          "type": "uint256"
        },
        {
          "indexed": false,
          "internalType": "string",
          "name": "userId",
          "type": "string"
        },
        {
          "indexed": false,
          "internalType": "address",
          "name": "wallet",
          "type": "address"
        },
        {
          "indexed": false,
          "internalType": "uint256",
          "name": "price",
          "type": "uint256"
        }
      ],
      "name": "AssetPurchased",
      "type": "event"
    },
    {
      "anonymous": false,
      "inputs": [
        {
          "indexed": true,
          "internalType": "address",
          "name": "creator",
          "type": "address"
        },
        {
          "indexed": false,
          "internalType": "uint256",
          "name": "amount",
          "type": "uint256"
        }
      ],
      "name": "CreatorEarnings",
      "type": "event"
    },
    {
      "anonymous": false,
      "inputs": [
        {
          "indexed": false,
          "internalType": "uint64",
          "name": "version",
          "type": "uint64"
        }
      ],
      "name": "Initialized",
      "type": "event"
    },
    {
      "inputs": [
        {
          "internalType": "uint256",
          "name": "",
          "type": "uint256"
        }
      ],
      "name": "assets",
      "outputs": [
        {
          "internalType": "uint256",
          "name": "id",
          "type": "uint256"
        },
        {
          "internalType": "string",
          "name": "name",
          "type": "string"
        },
        {
          "internalType": "string",
          "name": "description",
          "type": "string"
        },
        {
          "internalType": "uint256",
          "name": "price",
          "type": "uint256"
        },
        {
          "internalType": "string",
          "name": "assetUrl",
          "type": "string"
        },
        {
          "internalType": "string",
          "name": "userId",
          "type": "string"
        },
        {
          "internalType": "address payable",
          "name": "currentWallet",
          "type": "address"
        },
        {
          "internalType": "bool",
          "name": "isSold",
          "type": "bool"
        },
        {
          "internalType": "bool",
          "name": "isListed",
          "type": "bool"
        },
        {
          "internalType": "address",
          "name": "creator",
          "type": "address"
        }
      ],
      "stateMutability": "view",
      "type": "function"
    },
    {
      "inputs": [
        {
          "internalType": "address",
          "name": "",
          "type": "address"
        }
      ],
      "name": "creatorEarnings",
      "outputs": [
        {
          "internalType": "uint256",
          "name": "",
          "type": "uint256"
        }
      ],
      "stateMutability": "view",
      "type": "function"
    },
    {
      "inputs": [
        {
          "internalType": "uint256",
          "name": "_id",
          "type": "uint256"
        }
      ],
      "name": "delistAsset",
      "outputs": [],
      "stateMutability": "nonpayable",
      "type": "function"
    },
    {
      "inputs": [],
      "name": "getAssetCounter",
      "outputs": [
        {
          "internalType": "uint256",
          "name": "",
          "type": "uint256"
        }
      ],
      "stateMutability": "view",
      "type": "function"
    },
    {
      "inputs": [],
      "name": "getCreatorEarnings",
      "outputs": [
        {
          "internalType": "uint256",
          "name": "",
          "type": "uint256"
        }
      ],
      "stateMutability": "view",
      "type": "function"
    },
    {
      "inputs": [
        {
          "internalType": "string",
          "name": "_userId",
          "type": "string"
        }
      ],
      "name": "getUserAssets",
      "outputs": [
        {
          "components": [
            {
              "internalType": "uint256",
              "name": "id",
              "type": "uint256"
            },
            {
              "internalType": "string",
              "name": "name",
              "type": "string"
            },
            {
              "internalType": "string",
              "name": "description",
              "type": "string"
            },
            {
              "internalType": "uint256",
              "name": "price",
              "type": "uint256"
            },
            {
              "internalType": "string",
              "name": "assetUrl",
              "type": "string"
            },
            {
              "internalType": "string",
              "name": "userId",
              "type": "string"
            },
            {
              "internalType": "address payable",
              "name": "currentWallet",
              "type": "address"
            },
            {
              "internalType": "bool",
              "name": "isSold",
              "type": "bool"
            },
            {
              "internalType": "bool",
              "name": "isListed",
              "type": "bool"
            },
            {
              "internalType": "address",
              "name": "creator",
              "type": "address"
            }
          ],
          "internalType": "struct AssetMarketplace.Asset[]",
          "name": "",
          "type": "tuple[]"
        }
      ],
      "stateMutability": "view",
      "type": "function"
    },
    {
      "inputs": [],
      "name": "initialize",
      "outputs": [],
      "stateMutability": "nonpayable",
      "type": "function"
    },
    {
      "inputs": [
        {
          "internalType": "uint256",
          "name": "_id",
          "type": "uint256"
        }
      ],
      "name": "isAssetListed",
      "outputs": [
        {
          "internalType": "bool",
          "name": "",
          "type": "bool"
        }
      ],
      "stateMutability": "view",
      "type": "function"
    },
    {
      "inputs": [
        {
          "internalType": "string",
          "name": "_userId",
          "type": "string"
        },
        {
          "internalType": "string",
          "name": "_name",
          "type": "string"
        },
        {
          "internalType": "string",
          "name": "_description",
          "type": "string"
        },
        {
          "internalType": "uint256",
          "name": "_price",
          "type": "uint256"
        },
        {
          "internalType": "string",
          "name": "_assetUrl",
          "type": "string"
        }
      ],
      "name": "listAsset",
      "outputs": [],
      "stateMutability": "nonpayable",
      "type": "function"
    },
    {
      "inputs": [
        {
          "internalType": "uint256",
          "name": "_id",
          "type": "uint256"
        },
        {
          "internalType": "string",
          "name": "_userId",
          "type": "string"
        }
      ],
      "name": "purchaseAsset",
      "outputs": [],
      "stateMutability": "payable",
      "type": "function"
    }
  ],
  "bytecode": "0x6080604052348015600f57600080fd5b506129208061001f6000396000f3fe6080604052600436106100915760003560e01c8063833d99e711610059578063833d99e71461017b5780639a9a4c73146101a6578063bc5edbf4146101c2578063cf35bdd0146101eb578063fa3c30a81461023157610091565b806316aa11c2146100965780634090a26f146100d357806343d7c7781461011057806350d6b88a146101395780638129fc1c14610164575b600080fd5b3480156100a257600080fd5b506100bd60048036038101906100b891906117c2565b61026e565b6040516100ca9190611ad1565b60405180910390f35b3480156100df57600080fd5b506100fa60048036038101906100f59190611b1f565b6106ad565b6040516101079190611b5b565b60405180910390f35b34801561011c57600080fd5b5061013760048036038101906101329190611b1f565b6106da565b005b34801561014557600080fd5b5061014e6107ef565b60405161015b9190611b85565b60405180910390f35b34801561017057600080fd5b506101796107f8565b005b34801561018757600080fd5b50610190610984565b60405161019d9190611b85565b60405180910390f35b6101c060048036038101906101bb9190611ba0565b6109cb565b005b3480156101ce57600080fd5b506101e960048036038101906101e49190611bfc565b610f57565b005b3480156101f757600080fd5b50610212600480360381019061020d9190611b1f565b6112d7565b6040516102289a99989796959493929190611d4f565b60405180910390f35b34801561023d57600080fd5b5061025860048036038101906102539190611e33565b6115a5565b6040516102659190611b85565b60405180910390f35b606060006002836040516102829190611e9c565b908152602001604051809103902090506000818054905067ffffffffffffffff8111156102b2576102b1611697565b5b6040519080825280602002602001820160405280156102eb57816020015b6102d86115e5565b8152602001906001900390816102d05790505b50905060005b82805490508110156106a2576001600084838154811061031457610313611eb3565b5b90600052602060002001548152602001908152602001600020604051806101400160405290816000820154815260200160018201805461035390611f11565b80601f016020809104026020016040519081016040528092919081815260200182805461037f90611f11565b80156103cc5780601f106103a1576101008083540402835291602001916103cc565b820191906000526020600020905b8154815290600101906020018083116103af57829003601f168201915b505050505081526020016002820180546103e590611f11565b80601f016020809104026020016040519081016040528092919081815260200182805461041190611f11565b801561045e5780601f106104335761010080835404028352916020019161045e565b820191906000526020600020905b81548152906001019060200180831161044157829003601f168201915b505050505081526020016003820154815260200160048201805461048190611f11565b80601f01602080910402602001604051908101604052809291908181526020018280546104ad90611f11565b80156104fa5780601f106104cf576101008083540402835291602001916104fa565b820191906000526020600020905b8154815290600101906020018083116104dd57829003601f168201915b5050505050815260200160058201805461051390611f11565b80601f016020809104026020016040519081016040528092919081815260200182805461053f90611f11565b801561058c5780601f106105615761010080835404028352916020019161058c565b820191906000526020600020905b81548152906001019060200180831161056f57829003601f168201915b505050505081526020016006820160009054906101000a900473ffffffffffffffffffffffffffffffffffffffff1673ffffffffffffffffffffffffffffffffffffffff1673ffffffffffffffffffffffffffffffffffffffff1681526020016006820160149054906101000a900460ff161515151581526020016006820160159054906101000a900460ff161515151581526020016007820160009054906101000a900473ffffffffffffffffffffffffffffffffffffffff1673ffffffffffffffffffffffffffffffffffffffff1673ffffffffffffffffffffffffffffffffffffffff168152505082828151811061068a57610689611eb3565b5b602002602001018190525080806001019150506102f1565b508092505050919050565b60006001600083815260200190815260200160002060060160159054906101000a900460ff169050919050565b60006001600083815260200190815260200160002090508060060160159054906101000a900460ff16610742576040517f08c379a000000000000000000000000000000000000000000000000000000000815260040161073990611f8e565b60405180910390fd5b8060060160149054906101000a900460ff1615610794576040517f08c379a000000000000000000000000000000000000000000000000000000000815260040161078b90611ffa565b60405180910390fd5b60008160060160156101000a81548160ff0219169083151502179055507fd50a27e3b9691b827c539327cb063704ae22039ae9c907e3e0606e9a5eaa2aee8260006040516107e392919061201a565b60405180910390a15050565b60008054905090565b60006108026115bd565b905060008160000160089054906101000a900460ff1615905060008260000160009054906101000a900467ffffffffffffffff1690506000808267ffffffffffffffff161480156108505750825b9050600060018367ffffffffffffffff16148015610885575060003073ffffffffffffffffffffffffffffffffffffffff163b145b905081158015610893575080155b156108ca576040517ff92ee8a900000000000000000000000000000000000000000000000000000000815260040160405180910390fd5b60018560000160006101000a81548167ffffffffffffffff021916908367ffffffffffffffff160217905550831561091a5760018560000160086101000a81548160ff0219169083151502179055505b60008081905550831561097d5760008560000160086101000a81548160ff0219169083151502179055507fc7f505b2f371ae2175ee4913f4499e1f2633a7b5936321eed1cdaeb6115181d26001604051610974919061209c565b60405180910390a15b5050505050565b6000600360003373ffffffffffffffffffffffffffffffffffffffff1673ffffffffffffffffffffffffffffffffffffffff16815260200190815260200160002054905090565b60006001600084815260200190815260200160002090508060060160149054906101000a900460ff1615610a34576040517f08c379a0000000000000000000000000000000000000000000000000000000008152600401610a2b90612103565b60405180910390fd5b80600301543414610a7a576040517f08c379a0000000000000000000000000000000000000000000000000000000008152600401610a719061216f565b60405180910390fd5b6000825111610abe576040517f08c379a0000000000000000000000000000000000000000000000000000000008152600401610ab5906121db565b60405180910390fd5b8060060160159054906101000a900460ff16610b0f576040517f08c379a0000000000000000000000000000000000000000000000000000000008152600401610b0690612247565b60405180910390fd5b60008160070160009054906101000a900473ffffffffffffffffffffffffffffffffffffffff1673ffffffffffffffffffffffffffffffffffffffff1634604051610b5990612298565b60006040518083038185875af1925050503d8060008114610b96576040519150601f19603f3d011682016040523d82523d6000602084013e610b9b565b606091505b5050905080610bdf576040517f08c379a0000000000000000000000000000000000000000000000000000000008152600401610bd6906122f9565b60405180910390fd5b34600360008460070160009054906101000a900473ffffffffffffffffffffffffffffffffffffffff1673ffffffffffffffffffffffffffffffffffffffff1673ffffffffffffffffffffffffffffffffffffffff1681526020019081526020016000206000828254610c529190612348565b925050819055508160070160009054906101000a900473ffffffffffffffffffffffffffffffffffffffff1673ffffffffffffffffffffffffffffffffffffffff167fb3211638eadf8fe8db4a7f22f4d0857583129e0bba88bf448227973f2d9443d234604051610cc39190611b85565b60405180910390a26000826005018054610cdc90611f11565b80601f0160208091040260200160405190810160405280929190818152602001828054610d0890611f11565b8015610d555780601f10610d2a57610100808354040283529160200191610d55565b820191906000526020600020905b815481529060010190602001808311610d3857829003601f168201915b50505050509050338360060160006101000a81548173ffffffffffffffffffffffffffffffffffffffff021916908373ffffffffffffffffffffffffffffffffffffffff16021790555060018360060160146101000a81548160ff02191690831515021790555060008360060160156101000a81548160ff02191690831515021790555083836005019081610dea919061251e565b506000600282604051610dfd9190611e9c565b9081526020016040518091039020905060005b8180549050811015610ec85786828281548110610e3057610e2f611eb3565b5b906000526020600020015403610ebb578160018380549050610e5291906125f0565b81548110610e6357610e62611eb3565b5b9060005260206000200154828281548110610e8157610e80611eb3565b5b906000526020600020018190555081805480610ea057610e9f612624565b5b60019003818190600052602060002001600090559055610ec8565b8080600101915050610e10565b50600285604051610ed99190611e9c565b90815260200160405180910390208690806001815401808255809150506001900390600052602060002001600090919091909150557faa1aaf83c548988ee15ab834b8027fb3a437218d81b9417f7c44875f830909528686338760030154604051610f479493929190612653565b60405180910390a1505050505050565b60008211610f9a576040517f08c379a0000000000000000000000000000000000000000000000000000000008152600401610f91906126eb565b60405180910390fd5b6000845111610fde576040517f08c379a0000000000000000000000000000000000000000000000000000000008152600401610fd590612757565b60405180910390fd5b6000835111611022576040517f08c379a0000000000000000000000000000000000000000000000000000000008152600401611019906127c3565b60405180910390fd5b6000815111611066576040517f08c379a000000000000000000000000000000000000000000000000000000000815260040161105d9061282f565b60405180910390fd5b6000808154809291906110789061284f565b919050555060405180610140016040528060005481526020018581526020018481526020018381526020018281526020018681526020013373ffffffffffffffffffffffffffffffffffffffff1681526020016000151581526020016001151581526020013373ffffffffffffffffffffffffffffffffffffffff16815250600160008054815260200190815260200160002060008201518160000155602082015181600101908161112a919061251e565b506040820151816002019081611140919061251e565b50606082015181600301556080820151816004019081611160919061251e565b5060a0820151816005019081611176919061251e565b5060c08201518160060160006101000a81548173ffffffffffffffffffffffffffffffffffffffff021916908373ffffffffffffffffffffffffffffffffffffffff16021790555060e08201518160060160146101000a81548160ff0219169083151502179055506101008201518160060160156101000a81548160ff0219169083151502179055506101208201518160070160006101000a81548173ffffffffffffffffffffffffffffffffffffffff021916908373ffffffffffffffffffffffffffffffffffffffff16021790555090505060028560405161125a9190611e9c565b908152602001604051809103902060005490806001815401808255809150506001900390600052602060002001600090919091909150557f7022affff81ddecba567e3f08dcfe091e84b14d863edebe935ad0ad070c4d6b76000548584886040516112c89493929190612897565b60405180910390a15050505050565b600160205280600052604060002060009150905080600001549080600101805461130090611f11565b80601f016020809104026020016040519081016040528092919081815260200182805461132c90611f11565b80156113795780601f1061134e57610100808354040283529160200191611379565b820191906000526020600020905b81548152906001019060200180831161135c57829003601f168201915b50505050509080600201805461138e90611f11565b80601f01602080910402602001604051908101604052809291908181526020018280546113ba90611f11565b80156114075780601f106113dc57610100808354040283529160200191611407565b820191906000526020600020905b8154815290600101906020018083116113ea57829003601f168201915b50505050509080600301549080600401805461142290611f11565b80601f016020809104026020016040519081016040528092919081815260200182805461144e90611f11565b801561149b5780601f106114705761010080835404028352916020019161149b565b820191906000526020600020905b81548152906001019060200180831161147e57829003601f168201915b5050505050908060050180546114b090611f11565b80601f01602080910402602001604051908101604052809291908181526020018280546114dc90611f11565b80156115295780601f106114fe57610100808354040283529160200191611529565b820191906000526020600020905b81548152906001019060200180831161150c57829003601f168201915b5050505050908060060160009054906101000a900473ffffffffffffffffffffffffffffffffffffffff16908060060160149054906101000a900460ff16908060060160159054906101000a900460ff16908060070160009054906101000a900473ffffffffffffffffffffffffffffffffffffffff1690508a565b60036020528060005260406000206000915090505481565b60007ff0c57e16840df040f15088dc2f81fe391c3923bec73e23a9662efc9c229c6a00905090565b604051806101400160405280600081526020016060815260200160608152602001600081526020016060815260200160608152602001600073ffffffffffffffffffffffffffffffffffffffff168152602001600015158152602001600015158152602001600073ffffffffffffffffffffffffffffffffffffffff1681525090565b6000604051905090565b600080fd5b600080fd5b600080fd5b600080fd5b6000601f19601f8301169050919050565b7f4e487b7100000000000000000000000000000000000000000000000000000000600052604160045260246000fd5b6116cf82611686565b810181811067ffffffffffffffff821117156116ee576116ed611697565b5b80604052505050565b6000611701611668565b905061170d82826116c6565b919050565b600067ffffffffffffffff82111561172d5761172c611697565b5b61173682611686565b9050602081019050919050565b82818337600083830152505050565b600061176561176084611712565b6116f7565b90508281526020810184848401111561178157611780611681565b5b61178c848285611743565b509392505050565b600082601f8301126117a9576117a861167c565b5b81356117b9848260208601611752565b91505092915050565b6000602082840312156117d8576117d7611672565b5b600082013567ffffffffffffffff8111156117f6576117f5611677565b5b61180284828501611794565b91505092915050565b600081519050919050565b600082825260208201905092915050565b6000819050602082019050919050565b6000819050919050565b61184a81611837565b82525050565b600081519050919050565b600082825260208201905092915050565b60005b8381101561188a57808201518184015260208101905061186f565b60008484015250505050565b60006118a182611850565b6118ab818561185b565b93506118bb81856020860161186c565b6118c481611686565b840191505092915050565b600073ffffffffffffffffffffffffffffffffffffffff82169050919050565b60006118fa826118cf565b9050919050565b61190a816118ef565b82525050565b60008115159050919050565b61192581611910565b82525050565b6000611936826118cf565b9050919050565b6119468161192b565b82525050565b6000610140830160008301516119656000860182611841565b506020830151848203602086015261197d8282611896565b915050604083015184820360408601526119978282611896565b91505060608301516119ac6060860182611841565b50608083015184820360808601526119c48282611896565b91505060a083015184820360a08601526119de8282611896565b91505060c08301516119f360c0860182611901565b5060e0830151611a0660e086018261191c565b50610100830151611a1b61010086018261191c565b50610120830151611a3061012086018261193d565b508091505092915050565b6000611a47838361194c565b905092915050565b6000602082019050919050565b6000611a678261180b565b611a718185611816565b935083602082028501611a8385611827565b8060005b85811015611abf5784840389528151611aa08582611a3b565b9450611aab83611a4f565b925060208a01995050600181019050611a87565b50829750879550505050505092915050565b60006020820190508181036000830152611aeb8184611a5c565b905092915050565b611afc81611837565b8114611b0757600080fd5b50565b600081359050611b1981611af3565b92915050565b600060208284031215611b3557611b34611672565b5b6000611b4384828501611b0a565b91505092915050565b611b5581611910565b82525050565b6000602082019050611b706000830184611b4c565b92915050565b611b7f81611837565b82525050565b6000602082019050611b9a6000830184611b76565b92915050565b60008060408385031215611bb757611bb6611672565b5b6000611bc585828601611b0a565b925050602083013567ffffffffffffffff811115611be657611be5611677565b5b611bf285828601611794565b9150509250929050565b600080600080600060a08688031215611c1857611c17611672565b5b600086013567ffffffffffffffff811115611c3657611c35611677565b5b611c4288828901611794565b955050602086013567ffffffffffffffff811115611c6357611c62611677565b5b611c6f88828901611794565b945050604086013567ffffffffffffffff811115611c9057611c8f611677565b5b611c9c88828901611794565b9350506060611cad88828901611b0a565b925050608086013567ffffffffffffffff811115611cce57611ccd611677565b5b611cda88828901611794565b9150509295509295909350565b600082825260208201905092915050565b6000611d0382611850565b611d0d8185611ce7565b9350611d1d81856020860161186c565b611d2681611686565b840191505092915050565b611d3a816118ef565b82525050565b611d498161192b565b82525050565b600061014082019050611d65600083018d611b76565b8181036020830152611d77818c611cf8565b90508181036040830152611d8b818b611cf8565b9050611d9a606083018a611b76565b8181036080830152611dac8189611cf8565b905081810360a0830152611dc08188611cf8565b9050611dcf60c0830187611d31565b611ddc60e0830186611b4c565b611dea610100830185611b4c565b611df8610120830184611d40565b9b9a5050505050505050505050565b611e108161192b565b8114611e1b57600080fd5b50565b600081359050611e2d81611e07565b92915050565b600060208284031215611e4957611e48611672565b5b6000611e5784828501611e1e565b91505092915050565b600081905092915050565b6000611e7682611850565b611e808185611e60565b9350611e9081856020860161186c565b80840191505092915050565b6000611ea88284611e6b565b915081905092915050565b7f4e487b7100000000000000000000000000000000000000000000000000000000600052603260045260246000fd5b7f4e487b7100000000000000000000000000000000000000000000000000000000600052602260045260246000fd5b60006002820490506001821680611f2957607f821691505b602082108103611f3c57611f3b611ee2565b5b50919050565b7f417373657420697320616c72656164792064656c697374656400000000000000600082015250565b6000611f78601983611ce7565b9150611f8382611f42565b602082019050919050565b60006020820190508181036000830152611fa781611f6b565b9050919050565b7f43616e6e6f742064656c697374206120736f6c64206173736574000000000000600082015250565b6000611fe4601a83611ce7565b9150611fef82611fae565b602082019050919050565b6000602082019050818103600083015261201381611fd7565b9050919050565b600060408201905061202f6000830185611b76565b61203c6020830184611b4c565b9392505050565b6000819050919050565b600067ffffffffffffffff82169050919050565b6000819050919050565b600061208661208161207c84612043565b612061565b61204d565b9050919050565b6120968161206b565b82525050565b60006020820190506120b1600083018461208d565b92915050565b7f417373657420616c726561647920736f6c640000000000000000000000000000600082015250565b60006120ed601283611ce7565b91506120f8826120b7565b602082019050919050565b6000602082019050818103600083015261211c816120e0565b9050919050565b7f496e636f7272656374207061796d656e7420616d6f756e740000000000000000600082015250565b6000612159601883611ce7565b915061216482612123565b602082019050919050565b600060208201905081810360008301526121888161214c565b9050919050565b7f557365722049442063616e6e6f7420626520656d707479000000000000000000600082015250565b60006121c5601783611ce7565b91506121d08261218f565b602082019050919050565b600060208201905081810360008301526121f4816121b8565b9050919050565b7f4173736574206973206e6f74206c697374656400000000000000000000000000600082015250565b6000612231601383611ce7565b915061223c826121fb565b602082019050919050565b6000602082019050818103600083015261226081612224565b9050919050565b600081905092915050565b50565b6000612282600083612267565b915061228d82612272565b600082019050919050565b60006122a382612275565b9150819050919050565b7f5472616e73666572206661696c65640000000000000000000000000000000000600082015250565b60006122e3600f83611ce7565b91506122ee826122ad565b602082019050919050565b60006020820190508181036000830152612312816122d6565b9050919050565b7f4e487b7100000000000000000000000000000000000000000000000000000000600052601160045260246000fd5b600061235382611837565b915061235e83611837565b925082820190508082111561237657612375612319565b5b92915050565b60008190508160005260206000209050919050565b60006020601f8301049050919050565b600082821b905092915050565b6000600883026123de7fffffffffffffffffffffffffffffffffffffffffffffffffffffffffffffffff826123a1565b6123e886836123a1565b95508019841693508086168417925050509392505050565b600061241b61241661241184611837565b612061565b611837565b9050919050565b6000819050919050565b61243583612400565b61244961244182612422565b8484546123ae565b825550505050565b600090565b61245e612451565b61246981848461242c565b505050565b5b8181101561248d57612482600082612456565b60018101905061246f565b5050565b601f8211156124d2576124a38161237c565b6124ac84612391565b810160208510156124bb578190505b6124cf6124c785612391565b83018261246e565b50505b505050565b600082821c905092915050565b60006124f5600019846008026124d7565b1980831691505092915050565b600061250e83836124e4565b9150826002028217905092915050565b61252782611850565b67ffffffffffffffff8111156125405761253f611697565b5b61254a8254611f11565b612555828285612491565b600060209050601f8311600181146125885760008415612576578287015190505b6125808582612502565b8655506125e8565b601f1984166125968661237c565b60005b828110156125be57848901518255600182019150602085019450602081019050612599565b868310156125db57848901516125d7601f8916826124e4565b8355505b6001600288020188555050505b505050505050565b60006125fb82611837565b915061260683611837565b925082820390508181111561261e5761261d612319565b5b92915050565b7f4e487b7100000000000000000000000000000000000000000000000000000000600052603160045260246000fd5b60006080820190506126686000830187611b76565b818103602083015261267a8186611cf8565b90506126896040830185611d40565b6126966060830184611b76565b95945050505050565b7f5072696365206d7573742062652067726561746572207468616e203000000000600082015250565b60006126d5601c83611ce7565b91506126e08261269f565b602082019050919050565b60006020820190508181036000830152612704816126c8565b9050919050565b7f4e616d652063616e6e6f7420626520656d707479000000000000000000000000600082015250565b6000612741601483611ce7565b915061274c8261270b565b602082019050919050565b6000602082019050818103600083015261277081612734565b9050919050565b7f4465736372697074696f6e2063616e6e6f7420626520656d7074790000000000600082015250565b60006127ad601b83611ce7565b91506127b882612777565b602082019050919050565b600060208201905081810360008301526127dc816127a0565b9050919050565b7f41737365742055524c2063616e6e6f7420626520656d70747900000000000000600082015250565b6000612819601983611ce7565b9150612824826127e3565b602082019050919050565b600060208201905081810360008301526128488161280c565b9050919050565b600061285a82611837565b91507fffffffffffffffffffffffffffffffffffffffffffffffffffffffffffffffff820361288c5761288b612319565b5b600182019050919050565b60006080820190506128ac6000830187611b76565b81810360208301526128be8186611cf8565b90506128cd6040830185611b76565b81810360608301526128df8184611cf8565b90509594505050505056fea2646970667358221220b5c7914d3335b95b14dd883824c53f6b8ea3edfd6a5b8397a047070ca35dee2064736f6c634300081c0033",
  "linkReferences": {},
  "deployedLinkReferences": {}
}