{
  "_format": "hh-sol-artifact-1",
  "contractName": "AssetMarketplace",
  "sourceName": "contracts/AssetMarketplace.sol",
  "abi": [
    {
      "inputs": [],
      "name": "InvalidInitialization",
      "type": "error"
    },
    {
      "inputs": [],
      "name": "NotInitializing",
      "type": "error"
    },
    {
      "anonymous": false,
      "inputs": [
        {
          "indexed": false,
          "internalType": "uint256",
          "name": "id",
          "type": "uint256"
        },
        {
          "indexed": false,
          "internalType": "string",
          "name": "name",
          "type": "string"
        },
        {
          "indexed": false,
          "internalType": "uint256",
          "name": "price",
          "type": "uint256"
        },
        {
          "indexed": false,
          "internalType": "string",
          "name": "userId",
          "type": "string"
        }
      ],
      "name": "AssetListed",
      "type": "event"
    },
    {
      "anonymous": false,
      "inputs": [
        {
          "indexed": false,
          "internalType": "uint256",
          "name": "id",
          "type": "uint256"
        },
        {
          "indexed": false,
          "internalType": "string",
          "name": "userId",
          "type": "string"
        },
        {
          "indexed": false,
          "internalType": "address",
          "name": "wallet",
          "type": "address"
        },
        {
          "indexed": false,
          "internalType": "uint256",
          "name": "price",
          "type": "uint256"
        }
      ],
      "name": "AssetPurchased",
      "type": "event"
    },
    {
      "anonymous": false,
      "inputs": [
        {
          "indexed": true,
          "internalType": "address",
          "name": "creator",
          "type": "address"
        },
        {
          "indexed": false,
          "internalType": "uint256",
          "name": "amount",
          "type": "uint256"
        }
      ],
      "name": "CreatorEarnings",
      "type": "event"
    },
    {
      "anonymous": false,
      "inputs": [
        {
          "indexed": false,
          "internalType": "uint64",
          "name": "version",
          "type": "uint64"
        }
      ],
      "name": "Initialized",
      "type": "event"
    },
    {
      "inputs": [
        {
          "internalType": "uint256",
          "name": "",
          "type": "uint256"
        }
      ],
      "name": "assets",
      "outputs": [
        {
          "internalType": "uint256",
          "name": "id",
          "type": "uint256"
        },
        {
          "internalType": "string",
          "name": "name",
          "type": "string"
        },
        {
          "internalType": "string",
          "name": "description",
          "type": "string"
        },
        {
          "internalType": "uint256",
          "name": "price",
          "type": "uint256"
        },
        {
          "internalType": "string",
          "name": "assetUrl",
          "type": "string"
        },
        {
          "internalType": "string",
          "name": "userId",
          "type": "string"
        },
        {
          "internalType": "address payable",
          "name": "currentWallet",
          "type": "address"
        },
        {
          "internalType": "bool",
          "name": "isSold",
          "type": "bool"
        },
        {
          "internalType": "address",
          "name": "creator",
          "type": "address"
        }
      ],
      "stateMutability": "view",
      "type": "function"
    },
    {
      "inputs": [
        {
          "internalType": "address",
          "name": "",
          "type": "address"
        }
      ],
      "name": "creatorEarnings",
      "outputs": [
        {
          "internalType": "uint256",
          "name": "",
          "type": "uint256"
        }
      ],
      "stateMutability": "view",
      "type": "function"
    },
    {
      "inputs": [],
      "name": "getAssetCounter",
      "outputs": [
        {
          "internalType": "uint256",
          "name": "",
          "type": "uint256"
        }
      ],
      "stateMutability": "view",
      "type": "function"
    },
    {
      "inputs": [],
      "name": "getCreatorEarnings",
      "outputs": [
        {
          "internalType": "uint256",
          "name": "",
          "type": "uint256"
        }
      ],
      "stateMutability": "view",
      "type": "function"
    },
    {
      "inputs": [
        {
          "internalType": "string",
          "name": "_userId",
          "type": "string"
        }
      ],
      "name": "getUserAssets",
      "outputs": [
        {
          "components": [
            {
              "internalType": "uint256",
              "name": "id",
              "type": "uint256"
            },
            {
              "internalType": "string",
              "name": "name",
              "type": "string"
            },
            {
              "internalType": "string",
              "name": "description",
              "type": "string"
            },
            {
              "internalType": "uint256",
              "name": "price",
              "type": "uint256"
            },
            {
              "internalType": "string",
              "name": "assetUrl",
              "type": "string"
            },
            {
              "internalType": "string",
              "name": "userId",
              "type": "string"
            },
            {
              "internalType": "address payable",
              "name": "currentWallet",
              "type": "address"
            },
            {
              "internalType": "bool",
              "name": "isSold",
              "type": "bool"
            },
            {
              "internalType": "address",
              "name": "creator",
              "type": "address"
            }
          ],
          "internalType": "struct AssetMarketplace.Asset[]",
          "name": "",
          "type": "tuple[]"
        }
      ],
      "stateMutability": "view",
      "type": "function"
    },
    {
      "inputs": [],
      "name": "initialize",
      "outputs": [],
      "stateMutability": "nonpayable",
      "type": "function"
    },
    {
      "inputs": [
        {
          "internalType": "string",
          "name": "_userId",
          "type": "string"
        },
        {
          "internalType": "string",
          "name": "_name",
          "type": "string"
        },
        {
          "internalType": "string",
          "name": "_description",
          "type": "string"
        },
        {
          "internalType": "uint256",
          "name": "_price",
          "type": "uint256"
        },
        {
          "internalType": "string",
          "name": "_assetUrl",
          "type": "string"
        }
      ],
      "name": "listAsset",
      "outputs": [],
      "stateMutability": "nonpayable",
      "type": "function"
    },
    {
      "inputs": [
        {
          "internalType": "uint256",
          "name": "_id",
          "type": "uint256"
        },
        {
          "internalType": "string",
          "name": "_userId",
          "type": "string"
        }
      ],
      "name": "purchaseAsset",
      "outputs": [],
      "stateMutability": "payable",
      "type": "function"
    }
  ],
  "bytecode": "0x6080604052348015600f57600080fd5b506123008061001f6000396000f3fe60806040526004361061007b5760003560e01c80639a9a4c731161004e5780639a9a4c731461012a578063bc5edbf414610146578063cf35bdd01461016f578063fa3c30a8146101b45761007b565b806316aa11c21461008057806350d6b88a146100bd5780638129fc1c146100e8578063833d99e7146100ff575b600080fd5b34801561008c57600080fd5b506100a760048036038101906100a291906113b1565b6101f1565b6040516100b491906116ab565b60405180910390f35b3480156100c957600080fd5b506100d2610615565b6040516100df91906116dc565b60405180910390f35b3480156100f457600080fd5b506100fd61061e565b005b34801561010b57600080fd5b506101146107aa565b60405161012191906116dc565b60405180910390f35b610144600480360381019061013f9190611723565b6107f1565b005b34801561015257600080fd5b5061016d6004803603810190610168919061177f565b610b8c565b005b34801561017b57600080fd5b506101966004803603810190610191919061186a565b610ee2565b6040516101ab9998979695949392919061190e565b60405180910390f35b3480156101c057600080fd5b506101db60048036038101906101d691906119e3565b61119d565b6040516101e891906116dc565b60405180910390f35b606060006002836040516102059190611a4c565b908152602001604051809103902090506000818054905067ffffffffffffffff81111561023557610234611286565b5b60405190808252806020026020018201604052801561026e57816020015b61025b6111dd565b8152602001906001900390816102535790505b50905060005b828054905081101561060a576001600084838154811061029757610296611a63565b5b9060005260206000200154815260200190815260200160002060405180610120016040529081600082015481526020016001820180546102d690611ac1565b80601f016020809104026020016040519081016040528092919081815260200182805461030290611ac1565b801561034f5780601f106103245761010080835404028352916020019161034f565b820191906000526020600020905b81548152906001019060200180831161033257829003601f168201915b5050505050815260200160028201805461036890611ac1565b80601f016020809104026020016040519081016040528092919081815260200182805461039490611ac1565b80156103e15780601f106103b6576101008083540402835291602001916103e1565b820191906000526020600020905b8154815290600101906020018083116103c457829003601f168201915b505050505081526020016003820154815260200160048201805461040490611ac1565b80601f016020809104026020016040519081016040528092919081815260200182805461043090611ac1565b801561047d5780601f106104525761010080835404028352916020019161047d565b820191906000526020600020905b81548152906001019060200180831161046057829003601f168201915b5050505050815260200160058201805461049690611ac1565b80601f01602080910402602001604051908101604052809291908181526020018280546104c290611ac1565b801561050f5780601f106104e45761010080835404028352916020019161050f565b820191906000526020600020905b8154815290600101906020018083116104f257829003601f168201915b505050505081526020016006820160009054906101000a900473ffffffffffffffffffffffffffffffffffffffff1673ffffffffffffffffffffffffffffffffffffffff1673ffffffffffffffffffffffffffffffffffffffff1681526020016006820160149054906101000a900460ff161515151581526020016007820160009054906101000a900473ffffffffffffffffffffffffffffffffffffffff1673ffffffffffffffffffffffffffffffffffffffff1673ffffffffffffffffffffffffffffffffffffffff16815250508282815181106105f2576105f1611a63565b5b60200260200101819052508080600101915050610274565b508092505050919050565b60008054905090565b60006106286111b5565b905060008160000160089054906101000a900460ff1615905060008260000160009054906101000a900467ffffffffffffffff1690506000808267ffffffffffffffff161480156106765750825b9050600060018367ffffffffffffffff161480156106ab575060003073ffffffffffffffffffffffffffffffffffffffff163b145b9050811580156106b9575080155b156106f0576040517ff92ee8a900000000000000000000000000000000000000000000000000000000815260040160405180910390fd5b60018560000160006101000a81548167ffffffffffffffff021916908367ffffffffffffffff16021790555083156107405760018560000160086101000a81548160ff0219169083151502179055505b6000808190555083156107a35760008560000160086101000a81548160ff0219169083151502179055507fc7f505b2f371ae2175ee4913f4499e1f2633a7b5936321eed1cdaeb6115181d2600160405161079a9190611b4b565b60405180910390a15b5050505050565b6000600360003373ffffffffffffffffffffffffffffffffffffffff1673ffffffffffffffffffffffffffffffffffffffff16815260200190815260200160002054905090565b60006001600084815260200190815260200160002090508060060160149054906101000a900460ff161561085a576040517f08c379a000000000000000000000000000000000000000000000000000000000815260040161085190611bb2565b60405180910390fd5b806003015434146108a0576040517f08c379a000000000000000000000000000000000000000000000000000000000815260040161089790611c1e565b60405180910390fd5b60008251116108e4576040517f08c379a00000000000000000000000000000000000000000000000000000000081526004016108db90611c8a565b60405180910390fd5b60008160070160009054906101000a900473ffffffffffffffffffffffffffffffffffffffff1673ffffffffffffffffffffffffffffffffffffffff163460405161092e90611cdb565b60006040518083038185875af1925050503d806000811461096b576040519150601f19603f3d011682016040523d82523d6000602084013e610970565b606091505b50509050806109b4576040517f08c379a00000000000000000000000000000000000000000000000000000000081526004016109ab90611d3c565b60405180910390fd5b34600360008460070160009054906101000a900473ffffffffffffffffffffffffffffffffffffffff1673ffffffffffffffffffffffffffffffffffffffff1673ffffffffffffffffffffffffffffffffffffffff1681526020019081526020016000206000828254610a279190611d8b565b925050819055508160070160009054906101000a900473ffffffffffffffffffffffffffffffffffffffff1673ffffffffffffffffffffffffffffffffffffffff167fb3211638eadf8fe8db4a7f22f4d0857583129e0bba88bf448227973f2d9443d234604051610a9891906116dc565b60405180910390a2338260060160006101000a81548173ffffffffffffffffffffffffffffffffffffffff021916908373ffffffffffffffffffffffffffffffffffffffff16021790555060018260060160146101000a81548160ff021916908315150217905550600283604051610b109190611a4c565b90815260200160405180910390208490806001815401808255809150506001900390600052602060002001600090919091909150557faa1aaf83c548988ee15ab834b8027fb3a437218d81b9417f7c44875f830909528484338560030154604051610b7e9493929190611dbf565b60405180910390a150505050565b60008211610bcf576040517f08c379a0000000000000000000000000000000000000000000000000000000008152600401610bc690611e57565b60405180910390fd5b6000845111610c13576040517f08c379a0000000000000000000000000000000000000000000000000000000008152600401610c0a90611ec3565b60405180910390fd5b6000835111610c57576040517f08c379a0000000000000000000000000000000000000000000000000000000008152600401610c4e90611f2f565b60405180910390fd5b6000815111610c9b576040517f08c379a0000000000000000000000000000000000000000000000000000000008152600401610c9290611f9b565b60405180910390fd5b600080815480929190610cad90611fbb565b919050555060405180610120016040528060005481526020018581526020018481526020018381526020018281526020018681526020013373ffffffffffffffffffffffffffffffffffffffff1681526020016000151581526020013373ffffffffffffffffffffffffffffffffffffffff168152506001600080548152602001908152602001600020600082015181600001556020820151816001019081610d5691906121a5565b506040820151816002019081610d6c91906121a5565b50606082015181600301556080820151816004019081610d8c91906121a5565b5060a0820151816005019081610da291906121a5565b5060c08201518160060160006101000a81548173ffffffffffffffffffffffffffffffffffffffff021916908373ffffffffffffffffffffffffffffffffffffffff16021790555060e08201518160060160146101000a81548160ff0219169083151502179055506101008201518160070160006101000a81548173ffffffffffffffffffffffffffffffffffffffff021916908373ffffffffffffffffffffffffffffffffffffffff160217905550905050600285604051610e659190611a4c565b908152602001604051809103902060005490806001815401808255809150506001900390600052602060002001600090919091909150557f7022affff81ddecba567e3f08dcfe091e84b14d863edebe935ad0ad070c4d6b7600054858488604051610ed39493929190612277565b60405180910390a15050505050565b6001602052806000526040600020600091509050806000015490806001018054610f0b90611ac1565b80601f0160208091040260200160405190810160405280929190818152602001828054610f3790611ac1565b8015610f845780601f10610f5957610100808354040283529160200191610f84565b820191906000526020600020905b815481529060010190602001808311610f6757829003601f168201915b505050505090806002018054610f9990611ac1565b80601f0160208091040260200160405190810160405280929190818152602001828054610fc590611ac1565b80156110125780601f10610fe757610100808354040283529160200191611012565b820191906000526020600020905b815481529060010190602001808311610ff557829003601f168201915b50505050509080600301549080600401805461102d90611ac1565b80601f016020809104026020016040519081016040528092919081815260200182805461105990611ac1565b80156110a65780601f1061107b576101008083540402835291602001916110a6565b820191906000526020600020905b81548152906001019060200180831161108957829003601f168201915b5050505050908060050180546110bb90611ac1565b80601f01602080910402602001604051908101604052809291908181526020018280546110e790611ac1565b80156111345780601f1061110957610100808354040283529160200191611134565b820191906000526020600020905b81548152906001019060200180831161111757829003601f168201915b5050505050908060060160009054906101000a900473ffffffffffffffffffffffffffffffffffffffff16908060060160149054906101000a900460ff16908060070160009054906101000a900473ffffffffffffffffffffffffffffffffffffffff16905089565b60036020528060005260406000206000915090505481565b60007ff0c57e16840df040f15088dc2f81fe391c3923bec73e23a9662efc9c229c6a00905090565b604051806101200160405280600081526020016060815260200160608152602001600081526020016060815260200160608152602001600073ffffffffffffffffffffffffffffffffffffffff168152602001600015158152602001600073ffffffffffffffffffffffffffffffffffffffff1681525090565b6000604051905090565b600080fd5b600080fd5b600080fd5b600080fd5b6000601f19601f8301169050919050565b7f4e487b7100000000000000000000000000000000000000000000000000000000600052604160045260246000fd5b6112be82611275565b810181811067ffffffffffffffff821117156112dd576112dc611286565b5b80604052505050565b60006112f0611257565b90506112fc82826112b5565b919050565b600067ffffffffffffffff82111561131c5761131b611286565b5b61132582611275565b9050602081019050919050565b82818337600083830152505050565b600061135461134f84611301565b6112e6565b9050828152602081018484840111156113705761136f611270565b5b61137b848285611332565b509392505050565b600082601f8301126113985761139761126b565b5b81356113a8848260208601611341565b91505092915050565b6000602082840312156113c7576113c6611261565b5b600082013567ffffffffffffffff8111156113e5576113e4611266565b5b6113f184828501611383565b91505092915050565b600081519050919050565b600082825260208201905092915050565b6000819050602082019050919050565b6000819050919050565b61143981611426565b82525050565b600081519050919050565b600082825260208201905092915050565b60005b8381101561147957808201518184015260208101905061145e565b60008484015250505050565b60006114908261143f565b61149a818561144a565b93506114aa81856020860161145b565b6114b381611275565b840191505092915050565b600073ffffffffffffffffffffffffffffffffffffffff82169050919050565b60006114e9826114be565b9050919050565b6114f9816114de565b82525050565b60008115159050919050565b611514816114ff565b82525050565b6000611525826114be565b9050919050565b6115358161151a565b82525050565b6000610120830160008301516115546000860182611430565b506020830151848203602086015261156c8282611485565b915050604083015184820360408601526115868282611485565b915050606083015161159b6060860182611430565b50608083015184820360808601526115b38282611485565b91505060a083015184820360a08601526115cd8282611485565b91505060c08301516115e260c08601826114f0565b5060e08301516115f560e086018261150b565b5061010083015161160a61010086018261152c565b508091505092915050565b6000611621838361153b565b905092915050565b6000602082019050919050565b6000611641826113fa565b61164b8185611405565b93508360208202850161165d85611416565b8060005b85811015611699578484038952815161167a8582611615565b945061168583611629565b925060208a01995050600181019050611661565b50829750879550505050505092915050565b600060208201905081810360008301526116c58184611636565b905092915050565b6116d681611426565b82525050565b60006020820190506116f160008301846116cd565b92915050565b61170081611426565b811461170b57600080fd5b50565b60008135905061171d816116f7565b92915050565b6000806040838503121561173a57611739611261565b5b60006117488582860161170e565b925050602083013567ffffffffffffffff81111561176957611768611266565b5b61177585828601611383565b9150509250929050565b600080600080600060a0868803121561179b5761179a611261565b5b600086013567ffffffffffffffff8111156117b9576117b8611266565b5b6117c588828901611383565b955050602086013567ffffffffffffffff8111156117e6576117e5611266565b5b6117f288828901611383565b945050604086013567ffffffffffffffff81111561181357611812611266565b5b61181f88828901611383565b93505060606118308882890161170e565b925050608086013567ffffffffffffffff81111561185157611850611266565b5b61185d88828901611383565b9150509295509295909350565b6000602082840312156118805761187f611261565b5b600061188e8482850161170e565b91505092915050565b600082825260208201905092915050565b60006118b38261143f565b6118bd8185611897565b93506118cd81856020860161145b565b6118d681611275565b840191505092915050565b6118ea816114de565b82525050565b6118f9816114ff565b82525050565b6119088161151a565b82525050565b600061012082019050611924600083018c6116cd565b8181036020830152611936818b6118a8565b9050818103604083015261194a818a6118a8565b905061195960608301896116cd565b818103608083015261196b81886118a8565b905081810360a083015261197f81876118a8565b905061198e60c08301866118e1565b61199b60e08301856118f0565b6119a96101008301846118ff565b9a9950505050505050505050565b6119c08161151a565b81146119cb57600080fd5b50565b6000813590506119dd816119b7565b92915050565b6000602082840312156119f9576119f8611261565b5b6000611a07848285016119ce565b91505092915050565b600081905092915050565b6000611a268261143f565b611a308185611a10565b9350611a4081856020860161145b565b80840191505092915050565b6000611a588284611a1b565b915081905092915050565b7f4e487b7100000000000000000000000000000000000000000000000000000000600052603260045260246000fd5b7f4e487b7100000000000000000000000000000000000000000000000000000000600052602260045260246000fd5b60006002820490506001821680611ad957607f821691505b602082108103611aec57611aeb611a92565b5b50919050565b6000819050919050565b600067ffffffffffffffff82169050919050565b6000819050919050565b6000611b35611b30611b2b84611af2565b611b10565b611afc565b9050919050565b611b4581611b1a565b82525050565b6000602082019050611b606000830184611b3c565b92915050565b7f417373657420616c726561647920736f6c640000000000000000000000000000600082015250565b6000611b9c601283611897565b9150611ba782611b66565b602082019050919050565b60006020820190508181036000830152611bcb81611b8f565b9050919050565b7f496e636f7272656374207061796d656e7420616d6f756e740000000000000000600082015250565b6000611c08601883611897565b9150611c1382611bd2565b602082019050919050565b60006020820190508181036000830152611c3781611bfb565b9050919050565b7f557365722049442063616e6e6f7420626520656d707479000000000000000000600082015250565b6000611c74601783611897565b9150611c7f82611c3e565b602082019050919050565b60006020820190508181036000830152611ca381611c67565b9050919050565b600081905092915050565b50565b6000611cc5600083611caa565b9150611cd082611cb5565b600082019050919050565b6000611ce682611cb8565b9150819050919050565b7f5472616e73666572206661696c65640000000000000000000000000000000000600082015250565b6000611d26600f83611897565b9150611d3182611cf0565b602082019050919050565b60006020820190508181036000830152611d5581611d19565b9050919050565b7f4e487b7100000000000000000000000000000000000000000000000000000000600052601160045260246000fd5b6000611d9682611426565b9150611da183611426565b9250828201905080821115611db957611db8611d5c565b5b92915050565b6000608082019050611dd460008301876116cd565b8181036020830152611de681866118a8565b9050611df560408301856118ff565b611e0260608301846116cd565b95945050505050565b7f5072696365206d7573742062652067726561746572207468616e203000000000600082015250565b6000611e41601c83611897565b9150611e4c82611e0b565b602082019050919050565b60006020820190508181036000830152611e7081611e34565b9050919050565b7f4e616d652063616e6e6f7420626520656d707479000000000000000000000000600082015250565b6000611ead601483611897565b9150611eb882611e77565b602082019050919050565b60006020820190508181036000830152611edc81611ea0565b9050919050565b7f4465736372697074696f6e2063616e6e6f7420626520656d7074790000000000600082015250565b6000611f19601b83611897565b9150611f2482611ee3565b602082019050919050565b60006020820190508181036000830152611f4881611f0c565b9050919050565b7f41737365742055524c2063616e6e6f7420626520656d70747900000000000000600082015250565b6000611f85601983611897565b9150611f9082611f4f565b602082019050919050565b60006020820190508181036000830152611fb481611f78565b9050919050565b6000611fc682611426565b91507fffffffffffffffffffffffffffffffffffffffffffffffffffffffffffffffff8203611ff857611ff7611d5c565b5b600182019050919050565b60008190508160005260206000209050919050565b60006020601f8301049050919050565b600082821b905092915050565b6000600883026120657fffffffffffffffffffffffffffffffffffffffffffffffffffffffffffffffff82612028565b61206f8683612028565b95508019841693508086168417925050509392505050565b60006120a261209d61209884611426565b611b10565b611426565b9050919050565b6000819050919050565b6120bc83612087565b6120d06120c8826120a9565b848454612035565b825550505050565b600090565b6120e56120d8565b6120f08184846120b3565b505050565b5b81811015612114576121096000826120dd565b6001810190506120f6565b5050565b601f8211156121595761212a81612003565b61213384612018565b81016020851015612142578190505b61215661214e85612018565b8301826120f5565b50505b505050565b600082821c905092915050565b600061217c6000198460080261215e565b1980831691505092915050565b6000612195838361216b565b9150826002028217905092915050565b6121ae8261143f565b67ffffffffffffffff8111156121c7576121c6611286565b5b6121d18254611ac1565b6121dc828285612118565b600060209050601f83116001811461220f57600084156121fd578287015190505b6122078582612189565b86555061226f565b601f19841661221d86612003565b60005b8281101561224557848901518255600182019150602085019450602081019050612220565b86831015612262578489015161225e601f89168261216b565b8355505b6001600288020188555050505b505050505050565b600060808201905061228c60008301876116cd565b818103602083015261229e81866118a8565b90506122ad60408301856116cd565b81810360608301526122bf81846118a8565b90509594505050505056fea264697066735822122010fefb9e93c2455ee9aa62032694650e6c9c9dbd6da66f0d78c9374b416c614f64736f6c634300081c0033",
  "linkReferences": {},
  "deployedLinkReferences": {}
}