{
  "_format": "hh-sol-artifact-1",
  "contractName": "AssetMarketplace",
  "sourceName": "contracts/AssetMarketplace.sol",
  "abi": [
    {
      "inputs": [],
      "name": "InvalidInitialization",
      "type": "error"
    },
    {
      "inputs": [],
      "name": "NotInitializing",
      "type": "error"
    },
    {
      "anonymous": false,
      "inputs": [
        {
          "indexed": false,
          "internalType": "uint256",
          "name": "id",
          "type": "uint256"
        },
        {
          "indexed": false,
          "internalType": "bool",
          "name": "isListed",
          "type": "bool"
        }
      ],
      "name": "AssetListStatusUpdated",
      "type": "event"
    },
    {
      "anonymous": false,
      "inputs": [
        {
          "indexed": false,
          "internalType": "uint256",
          "name": "id",
          "type": "uint256"
        },
        {
          "indexed": false,
          "internalType": "string",
          "name": "name",
          "type": "string"
        },
        {
          "indexed": false,
          "internalType": "uint256",
          "name": "price",
          "type": "uint256"
        },
        {
          "indexed": false,
          "internalType": "string",
          "name": "userId",
          "type": "string"
        }
      ],
      "name": "AssetListed",
      "type": "event"
    },
    {
      "anonymous": false,
      "inputs": [
        {
          "indexed": false,
          "internalType": "uint256",
          "name": "id",
          "type": "uint256"
        },
        {
          "indexed": false,
          "internalType": "string",
          "name": "userId",
          "type": "string"
        },
        {
          "indexed": false,
          "internalType": "address",
          "name": "wallet",
          "type": "address"
        },
        {
          "indexed": false,
          "internalType": "uint256",
          "name": "price",
          "type": "uint256"
        }
      ],
      "name": "AssetPurchased",
      "type": "event"
    },
    {
      "anonymous": false,
      "inputs": [
        {
          "indexed": true,
          "internalType": "address",
          "name": "creator",
          "type": "address"
        },
        {
          "indexed": false,
          "internalType": "uint256",
          "name": "amount",
          "type": "uint256"
        }
      ],
      "name": "CreatorEarnings",
      "type": "event"
    },
    {
      "anonymous": false,
      "inputs": [
        {
          "indexed": false,
          "internalType": "uint64",
          "name": "version",
          "type": "uint64"
        }
      ],
      "name": "Initialized",
      "type": "event"
    },
    {
      "inputs": [
        {
          "internalType": "uint256",
          "name": "",
          "type": "uint256"
        }
      ],
      "name": "assets",
      "outputs": [
        {
          "internalType": "uint256",
          "name": "id",
          "type": "uint256"
        },
        {
          "internalType": "string",
          "name": "name",
          "type": "string"
        },
        {
          "internalType": "string",
          "name": "description",
          "type": "string"
        },
        {
          "internalType": "uint256",
          "name": "price",
          "type": "uint256"
        },
        {
          "internalType": "string",
          "name": "assetUrl",
          "type": "string"
        },
        {
          "internalType": "string",
          "name": "userId",
          "type": "string"
        },
        {
          "internalType": "address payable",
          "name": "currentWallet",
          "type": "address"
        },
        {
          "internalType": "bool",
          "name": "isSold",
          "type": "bool"
        },
        {
          "internalType": "bool",
          "name": "isListed",
          "type": "bool"
        },
        {
          "internalType": "address",
          "name": "creator",
          "type": "address"
        }
      ],
      "stateMutability": "view",
      "type": "function"
    },
    {
      "inputs": [
        {
          "internalType": "address",
          "name": "",
          "type": "address"
        }
      ],
      "name": "creatorEarnings",
      "outputs": [
        {
          "internalType": "uint256",
          "name": "",
          "type": "uint256"
        }
      ],
      "stateMutability": "view",
      "type": "function"
    },
    {
      "inputs": [
        {
          "internalType": "uint256",
          "name": "_id",
          "type": "uint256"
        }
      ],
      "name": "delistAsset",
      "outputs": [],
      "stateMutability": "nonpayable",
      "type": "function"
    },
    {
      "inputs": [],
      "name": "getAssetCounter",
      "outputs": [
        {
          "internalType": "uint256",
          "name": "",
          "type": "uint256"
        }
      ],
      "stateMutability": "view",
      "type": "function"
    },
    {
      "inputs": [],
      "name": "getCreatorEarnings",
      "outputs": [
        {
          "internalType": "uint256",
          "name": "",
          "type": "uint256"
        }
      ],
      "stateMutability": "view",
      "type": "function"
    },
    {
      "inputs": [
        {
          "internalType": "string",
          "name": "_userId",
          "type": "string"
        }
      ],
      "name": "getUserAssets",
      "outputs": [
        {
          "components": [
            {
              "internalType": "uint256",
              "name": "id",
              "type": "uint256"
            },
            {
              "internalType": "string",
              "name": "name",
              "type": "string"
            },
            {
              "internalType": "string",
              "name": "description",
              "type": "string"
            },
            {
              "internalType": "uint256",
              "name": "price",
              "type": "uint256"
            },
            {
              "internalType": "string",
              "name": "assetUrl",
              "type": "string"
            },
            {
              "internalType": "string",
              "name": "userId",
              "type": "string"
            },
            {
              "internalType": "address payable",
              "name": "currentWallet",
              "type": "address"
            },
            {
              "internalType": "bool",
              "name": "isSold",
              "type": "bool"
            },
            {
              "internalType": "bool",
              "name": "isListed",
              "type": "bool"
            },
            {
              "internalType": "address",
              "name": "creator",
              "type": "address"
            }
          ],
          "internalType": "struct AssetMarketplace.Asset[]",
          "name": "",
          "type": "tuple[]"
        }
      ],
      "stateMutability": "view",
      "type": "function"
    },
    {
      "inputs": [],
      "name": "initialize",
      "outputs": [],
      "stateMutability": "nonpayable",
      "type": "function"
    },
    {
      "inputs": [
        {
          "internalType": "uint256",
          "name": "_id",
          "type": "uint256"
        }
      ],
      "name": "isAssetListed",
      "outputs": [
        {
          "internalType": "bool",
          "name": "",
          "type": "bool"
        }
      ],
      "stateMutability": "view",
      "type": "function"
    },
    {
      "inputs": [
        {
          "internalType": "uint256",
          "name": "_id",
          "type": "uint256"
        },
        {
          "internalType": "string",
          "name": "_userId",
          "type": "string"
        },
        {
          "internalType": "string",
          "name": "_name",
          "type": "string"
        },
        {
          "internalType": "string",
          "name": "_description",
          "type": "string"
        },
        {
          "internalType": "uint256",
          "name": "_price",
          "type": "uint256"
        },
        {
          "internalType": "string",
          "name": "_assetUrl",
          "type": "string"
        }
      ],
      "name": "listAsset",
      "outputs": [],
      "stateMutability": "nonpayable",
      "type": "function"
    },
    {
      "inputs": [
        {
          "internalType": "uint256",
          "name": "_id",
          "type": "uint256"
        },
        {
          "internalType": "string",
          "name": "_userId",
          "type": "string"
        }
      ],
      "name": "purchaseAsset",
      "outputs": [],
      "stateMutability": "payable",
      "type": "function"
    }
  ],
  "bytecode": "0x6080604052348015600f57600080fd5b50612cab8061001f6000396000f3fe6080604052600436106100915760003560e01c80638129fc1c116100595780638129fc1c1461018d578063833d99e7146101a45780639a9a4c73146101cf578063cf35bdd0146101eb578063fa3c30a81461023157610091565b8063107c39751461009657806316aa11c2146100bf5780634090a26f146100fc57806343d7c7781461013957806350d6b88a14610162575b600080fd5b3480156100a257600080fd5b506100bd60048036038101906100b89190611a1f565b61026e565b005b3480156100cb57600080fd5b506100e660048036038101906100e19190611b1c565b6107fb565b6040516100f39190611e21565b60405180910390f35b34801561010857600080fd5b50610123600480360381019061011e9190611e43565b610c3a565b6040516101309190611e7f565b60405180910390f35b34801561014557600080fd5b50610160600480360381019061015b9190611e43565b610c67565b005b34801561016e57600080fd5b50610177610d96565b6040516101849190611ea9565b60405180910390f35b34801561019957600080fd5b506101a2610d9f565b005b3480156101b057600080fd5b506101b9610f2b565b6040516101c69190611ea9565b60405180910390f35b6101e960048036038101906101e49190611ec4565b610f72565b005b3480156101f757600080fd5b50610212600480360381019061020d9190611e43565b6114fe565b6040516102289a99989796959493929190611f88565b60405180910390f35b34801561023d57600080fd5b506102586004803603810190610253919061206c565b6117cc565b6040516102659190611ea9565b60405180910390f35b600082116102b1576040517f08c379a00000000000000000000000000000000000000000000000000000000081526004016102a8906120e5565b60405180910390fd5b60008451116102f5576040517f08c379a00000000000000000000000000000000000000000000000000000000081526004016102ec90612151565b60405180910390fd5b6000835111610339576040517f08c379a0000000000000000000000000000000000000000000000000000000008152600401610330906121bd565b60405180910390fd5b600081511161037d576040517f08c379a000000000000000000000000000000000000000000000000000000000815260040161037490612229565b60405180910390fd5b60008551116103c1576040517f08c379a00000000000000000000000000000000000000000000000000000000081526004016103b890612295565b60405180910390fd5b6000861180156103d357506000548611155b156105885760006001600088815260200190815260200160002090508560405160200161040091906122f1565b604051602081830303815290604052805190602001208160050160405160200161042a9190612400565b6040516020818303038152906040528051906020012014610480576040517f08c379a000000000000000000000000000000000000000000000000000000000815260040161047790612489565b60405180910390fd5b8060060160149054906101000a900460ff1680156104ac57508060060160159054906101000a900460ff165b156104ec576040517f08c379a00000000000000000000000000000000000000000000000000000000081526004016104e39061251b565b60405180910390fd5b848160010190816104fd91906126d2565b508381600201908161050f91906126d2565b508281600301819055508181600401908161052a91906126d2565b5060018160060160156101000a81548160ff0219169083151502179055507fd50a27e3b9691b827c539327cb063704ae22039ae9c907e3e0606e9a5eaa2aee87600160405161057a9291906127a4565b60405180910390a1506107f3565b60008081548092919061059a906127fc565b919050555060405180610140016040528060005481526020018581526020018481526020018381526020018281526020018681526020013373ffffffffffffffffffffffffffffffffffffffff1681526020016000151581526020016001151581526020013373ffffffffffffffffffffffffffffffffffffffff16815250600160008054815260200190815260200160002060008201518160000155602082015181600101908161064c91906126d2565b50604082015181600201908161066291906126d2565b5060608201518160030155608082015181600401908161068291906126d2565b5060a082015181600501908161069891906126d2565b5060c08201518160060160006101000a81548173ffffffffffffffffffffffffffffffffffffffff021916908373ffffffffffffffffffffffffffffffffffffffff16021790555060e08201518160060160146101000a81548160ff0219169083151502179055506101008201518160060160156101000a81548160ff0219169083151502179055506101208201518160070160006101000a81548173ffffffffffffffffffffffffffffffffffffffff021916908373ffffffffffffffffffffffffffffffffffffffff16021790555090505060028560405161077c91906122f1565b908152602001604051809103902060005490806001815401808255809150506001900390600052602060002001600090919091909150557f7022affff81ddecba567e3f08dcfe091e84b14d863edebe935ad0ad070c4d6b76000548584886040516107ea9493929190612844565b60405180910390a15b505050505050565b6060600060028360405161080f91906122f1565b908152602001604051809103902090506000818054905067ffffffffffffffff81111561083f5761083e6118f4565b5b60405190808252806020026020018201604052801561087857816020015b61086561180c565b81526020019060019003908161085d5790505b50905060005b8280549050811015610c2f57600160008483815481106108a1576108a0612897565b5b9060005260206000200154815260200190815260200160002060405180610140016040529081600082015481526020016001820180546108e090612337565b80601f016020809104026020016040519081016040528092919081815260200182805461090c90612337565b80156109595780601f1061092e57610100808354040283529160200191610959565b820191906000526020600020905b81548152906001019060200180831161093c57829003601f168201915b5050505050815260200160028201805461097290612337565b80601f016020809104026020016040519081016040528092919081815260200182805461099e90612337565b80156109eb5780601f106109c0576101008083540402835291602001916109eb565b820191906000526020600020905b8154815290600101906020018083116109ce57829003601f168201915b5050505050815260200160038201548152602001600482018054610a0e90612337565b80601f0160208091040260200160405190810160405280929190818152602001828054610a3a90612337565b8015610a875780601f10610a5c57610100808354040283529160200191610a87565b820191906000526020600020905b815481529060010190602001808311610a6a57829003601f168201915b50505050508152602001600582018054610aa090612337565b80601f0160208091040260200160405190810160405280929190818152602001828054610acc90612337565b8015610b195780601f10610aee57610100808354040283529160200191610b19565b820191906000526020600020905b815481529060010190602001808311610afc57829003601f168201915b505050505081526020016006820160009054906101000a900473ffffffffffffffffffffffffffffffffffffffff1673ffffffffffffffffffffffffffffffffffffffff1673ffffffffffffffffffffffffffffffffffffffff1681526020016006820160149054906101000a900460ff161515151581526020016006820160159054906101000a900460ff161515151581526020016007820160009054906101000a900473ffffffffffffffffffffffffffffffffffffffff1673ffffffffffffffffffffffffffffffffffffffff1673ffffffffffffffffffffffffffffffffffffffff1681525050828281518110610c1757610c16612897565b5b6020026020010181905250808060010191505061087e565b508092505050919050565b60006001600083815260200190815260200160002060060160159054906101000a900460ff169050919050565b60006001600083815260200190815260200160002090508060060160159054906101000a900460ff16610ccf576040517f08c379a0000000000000000000000000000000000000000000000000000000008152600401610cc690612912565b60405180910390fd5b8060060160149054906101000a900460ff168015610cfb57508060060160159054906101000a900460ff165b15610d3b576040517f08c379a0000000000000000000000000000000000000000000000000000000008152600401610d329061251b565b60405180910390fd5b60008160060160156101000a81548160ff0219169083151502179055507fd50a27e3b9691b827c539327cb063704ae22039ae9c907e3e0606e9a5eaa2aee826000604051610d8a9291906127a4565b60405180910390a15050565b60008054905090565b6000610da96117e4565b905060008160000160089054906101000a900460ff1615905060008260000160009054906101000a900467ffffffffffffffff1690506000808267ffffffffffffffff16148015610df75750825b9050600060018367ffffffffffffffff16148015610e2c575060003073ffffffffffffffffffffffffffffffffffffffff163b145b905081158015610e3a575080155b15610e71576040517ff92ee8a900000000000000000000000000000000000000000000000000000000815260040160405180910390fd5b60018560000160006101000a81548167ffffffffffffffff021916908367ffffffffffffffff1602179055508315610ec15760018560000160086101000a81548160ff0219169083151502179055505b600080819055508315610f245760008560000160086101000a81548160ff0219169083151502179055507fc7f505b2f371ae2175ee4913f4499e1f2633a7b5936321eed1cdaeb6115181d26001604051610f1b9190612981565b60405180910390a15b5050505050565b6000600360003373ffffffffffffffffffffffffffffffffffffffff1673ffffffffffffffffffffffffffffffffffffffff16815260200190815260200160002054905090565b60006001600084815260200190815260200160002090508060060160149054906101000a900460ff1615610fdb576040517f08c379a0000000000000000000000000000000000000000000000000000000008152600401610fd2906129e8565b60405180910390fd5b80600301543414611021576040517f08c379a000000000000000000000000000000000000000000000000000000000815260040161101890612a54565b60405180910390fd5b6000825111611065576040517f08c379a000000000000000000000000000000000000000000000000000000000815260040161105c90612295565b60405180910390fd5b8060060160159054906101000a900460ff166110b6576040517f08c379a00000000000000000000000000000000000000000000000000000000081526004016110ad90612ac0565b60405180910390fd5b60008160070160009054906101000a900473ffffffffffffffffffffffffffffffffffffffff1673ffffffffffffffffffffffffffffffffffffffff163460405161110090612b11565b60006040518083038185875af1925050503d806000811461113d576040519150601f19603f3d011682016040523d82523d6000602084013e611142565b606091505b5050905080611186576040517f08c379a000000000000000000000000000000000000000000000000000000000815260040161117d90612b72565b60405180910390fd5b34600360008460070160009054906101000a900473ffffffffffffffffffffffffffffffffffffffff1673ffffffffffffffffffffffffffffffffffffffff1673ffffffffffffffffffffffffffffffffffffffff16815260200190815260200160002060008282546111f99190612b92565b925050819055508160070160009054906101000a900473ffffffffffffffffffffffffffffffffffffffff1673ffffffffffffffffffffffffffffffffffffffff167fb3211638eadf8fe8db4a7f22f4d0857583129e0bba88bf448227973f2d9443d23460405161126a9190611ea9565b60405180910390a2600082600501805461128390612337565b80601f01602080910402602001604051908101604052809291908181526020018280546112af90612337565b80156112fc5780601f106112d1576101008083540402835291602001916112fc565b820191906000526020600020905b8154815290600101906020018083116112df57829003601f168201915b50505050509050338360060160006101000a81548173ffffffffffffffffffffffffffffffffffffffff021916908373ffffffffffffffffffffffffffffffffffffffff16021790555060018360060160146101000a81548160ff02191690831515021790555060008360060160156101000a81548160ff0219169083151502179055508383600501908161139191906126d2565b5060006002826040516113a491906122f1565b9081526020016040518091039020905060005b818054905081101561146f57868282815481106113d7576113d6612897565b5b9060005260206000200154036114625781600183805490506113f99190612bc6565b8154811061140a57611409612897565b5b906000526020600020015482828154811061142857611427612897565b5b90600052602060002001819055508180548061144757611446612bfa565b5b6001900381819060005260206000200160009055905561146f565b80806001019150506113b7565b5060028560405161148091906122f1565b90815260200160405180910390208690806001815401808255809150506001900390600052602060002001600090919091909150557faa1aaf83c548988ee15ab834b8027fb3a437218d81b9417f7c44875f8309095286863387600301546040516114ee9493929190612c29565b60405180910390a1505050505050565b600160205280600052604060002060009150905080600001549080600101805461152790612337565b80601f016020809104026020016040519081016040528092919081815260200182805461155390612337565b80156115a05780601f10611575576101008083540402835291602001916115a0565b820191906000526020600020905b81548152906001019060200180831161158357829003601f168201915b5050505050908060020180546115b590612337565b80601f01602080910402602001604051908101604052809291908181526020018280546115e190612337565b801561162e5780601f106116035761010080835404028352916020019161162e565b820191906000526020600020905b81548152906001019060200180831161161157829003601f168201915b50505050509080600301549080600401805461164990612337565b80601f016020809104026020016040519081016040528092919081815260200182805461167590612337565b80156116c25780601f10611697576101008083540402835291602001916116c2565b820191906000526020600020905b8154815290600101906020018083116116a557829003601f168201915b5050505050908060050180546116d790612337565b80601f016020809104026020016040519081016040528092919081815260200182805461170390612337565b80156117505780601f1061172557610100808354040283529160200191611750565b820191906000526020600020905b81548152906001019060200180831161173357829003601f168201915b5050505050908060060160009054906101000a900473ffffffffffffffffffffffffffffffffffffffff16908060060160149054906101000a900460ff16908060060160159054906101000a900460ff16908060070160009054906101000a900473ffffffffffffffffffffffffffffffffffffffff1690508a565b60036020528060005260406000206000915090505481565b60007ff0c57e16840df040f15088dc2f81fe391c3923bec73e23a9662efc9c229c6a00905090565b604051806101400160405280600081526020016060815260200160608152602001600081526020016060815260200160608152602001600073ffffffffffffffffffffffffffffffffffffffff168152602001600015158152602001600015158152602001600073ffffffffffffffffffffffffffffffffffffffff1681525090565b6000604051905090565b600080fd5b600080fd5b6000819050919050565b6118b6816118a3565b81146118c157600080fd5b50565b6000813590506118d3816118ad565b92915050565b600080fd5b600080fd5b6000601f19601f8301169050919050565b7f4e487b7100000000000000000000000000000000000000000000000000000000600052604160045260246000fd5b61192c826118e3565b810181811067ffffffffffffffff8211171561194b5761194a6118f4565b5b80604052505050565b600061195e61188f565b905061196a8282611923565b919050565b600067ffffffffffffffff82111561198a576119896118f4565b5b611993826118e3565b9050602081019050919050565b82818337600083830152505050565b60006119c26119bd8461196f565b611954565b9050828152602081018484840111156119de576119dd6118de565b5b6119e98482856119a0565b509392505050565b600082601f830112611a0657611a056118d9565b5b8135611a168482602086016119af565b91505092915050565b60008060008060008060c08789031215611a3c57611a3b611899565b5b6000611a4a89828a016118c4565b965050602087013567ffffffffffffffff811115611a6b57611a6a61189e565b5b611a7789828a016119f1565b955050604087013567ffffffffffffffff811115611a9857611a9761189e565b5b611aa489828a016119f1565b945050606087013567ffffffffffffffff811115611ac557611ac461189e565b5b611ad189828a016119f1565b9350506080611ae289828a016118c4565b92505060a087013567ffffffffffffffff811115611b0357611b0261189e565b5b611b0f89828a016119f1565b9150509295509295509295565b600060208284031215611b3257611b31611899565b5b600082013567ffffffffffffffff811115611b5057611b4f61189e565b5b611b5c848285016119f1565b91505092915050565b600081519050919050565b600082825260208201905092915050565b6000819050602082019050919050565b611b9a816118a3565b82525050565b600081519050919050565b600082825260208201905092915050565b60005b83811015611bda578082015181840152602081019050611bbf565b60008484015250505050565b6000611bf182611ba0565b611bfb8185611bab565b9350611c0b818560208601611bbc565b611c14816118e3565b840191505092915050565b600073ffffffffffffffffffffffffffffffffffffffff82169050919050565b6000611c4a82611c1f565b9050919050565b611c5a81611c3f565b82525050565b60008115159050919050565b611c7581611c60565b82525050565b6000611c8682611c1f565b9050919050565b611c9681611c7b565b82525050565b600061014083016000830151611cb56000860182611b91565b5060208301518482036020860152611ccd8282611be6565b91505060408301518482036040860152611ce78282611be6565b9150506060830151611cfc6060860182611b91565b5060808301518482036080860152611d148282611be6565b91505060a083015184820360a0860152611d2e8282611be6565b91505060c0830151611d4360c0860182611c51565b5060e0830151611d5660e0860182611c6c565b50610100830151611d6b610100860182611c6c565b50610120830151611d80610120860182611c8d565b508091505092915050565b6000611d978383611c9c565b905092915050565b6000602082019050919050565b6000611db782611b65565b611dc18185611b70565b935083602082028501611dd385611b81565b8060005b85811015611e0f5784840389528151611df08582611d8b565b9450611dfb83611d9f565b925060208a01995050600181019050611dd7565b50829750879550505050505092915050565b60006020820190508181036000830152611e3b8184611dac565b905092915050565b600060208284031215611e5957611e58611899565b5b6000611e67848285016118c4565b91505092915050565b611e7981611c60565b82525050565b6000602082019050611e946000830184611e70565b92915050565b611ea3816118a3565b82525050565b6000602082019050611ebe6000830184611e9a565b92915050565b60008060408385031215611edb57611eda611899565b5b6000611ee9858286016118c4565b925050602083013567ffffffffffffffff811115611f0a57611f0961189e565b5b611f16858286016119f1565b9150509250929050565b600082825260208201905092915050565b6000611f3c82611ba0565b611f468185611f20565b9350611f56818560208601611bbc565b611f5f816118e3565b840191505092915050565b611f7381611c3f565b82525050565b611f8281611c7b565b82525050565b600061014082019050611f9e600083018d611e9a565b8181036020830152611fb0818c611f31565b90508181036040830152611fc4818b611f31565b9050611fd3606083018a611e9a565b8181036080830152611fe58189611f31565b905081810360a0830152611ff98188611f31565b905061200860c0830187611f6a565b61201560e0830186611e70565b612023610100830185611e70565b612031610120830184611f79565b9b9a5050505050505050505050565b61204981611c7b565b811461205457600080fd5b50565b60008135905061206681612040565b92915050565b60006020828403121561208257612081611899565b5b600061209084828501612057565b91505092915050565b7f5072696365206d7573742062652067726561746572207468616e203000000000600082015250565b60006120cf601c83611f20565b91506120da82612099565b602082019050919050565b600060208201905081810360008301526120fe816120c2565b9050919050565b7f4e616d652063616e6e6f7420626520656d707479000000000000000000000000600082015250565b600061213b601483611f20565b915061214682612105565b602082019050919050565b6000602082019050818103600083015261216a8161212e565b9050919050565b7f4465736372697074696f6e2063616e6e6f7420626520656d7074790000000000600082015250565b60006121a7601b83611f20565b91506121b282612171565b602082019050919050565b600060208201905081810360008301526121d68161219a565b9050919050565b7f41737365742055524c2063616e6e6f7420626520656d70747900000000000000600082015250565b6000612213601983611f20565b915061221e826121dd565b602082019050919050565b6000602082019050818103600083015261224281612206565b9050919050565b7f557365722049442063616e6e6f7420626520656d707479000000000000000000600082015250565b600061227f601783611f20565b915061228a82612249565b602082019050919050565b600060208201905081810360008301526122ae81612272565b9050919050565b600081905092915050565b60006122cb82611ba0565b6122d581856122b5565b93506122e5818560208601611bbc565b80840191505092915050565b60006122fd82846122c0565b915081905092915050565b7f4e487b7100000000000000000000000000000000000000000000000000000000600052602260045260246000fd5b6000600282049050600182168061234f57607f821691505b60208210810361236257612361612308565b5b50919050565b60008190508160005260206000209050919050565b6000815461238a81612337565b61239481866122b5565b945060018216600081146123af57600181146123c4576123f7565b60ff19831686528115158202860193506123f7565b6123cd85612368565b60005b838110156123ef578154818901526001820191506020810190506123d0565b838801955050505b50505092915050565b600061240c828461237d565b915081905092915050565b7f4f6e6c79207468652063726561746f722063616e20757064617465207468697360008201527f2061737365740000000000000000000000000000000000000000000000000000602082015250565b6000612473602683611f20565b915061247e82612417565b604082019050919050565b600060208201905081810360008301526124a281612466565b9050919050565b7f43616e6e6f7420757064617465206120736f6c6420616e64206c69737465642060008201527f6173736574000000000000000000000000000000000000000000000000000000602082015250565b6000612505602583611f20565b9150612510826124a9565b604082019050919050565b60006020820190508181036000830152612534816124f8565b9050919050565b60006020601f8301049050919050565b600082821b905092915050565b6000600883026125887fffffffffffffffffffffffffffffffffffffffffffffffffffffffffffffffff8261254b565b612592868361254b565b95508019841693508086168417925050509392505050565b6000819050919050565b60006125cf6125ca6125c5846118a3565b6125aa565b6118a3565b9050919050565b6000819050919050565b6125e9836125b4565b6125fd6125f5826125d6565b848454612558565b825550505050565b600090565b612612612605565b61261d8184846125e0565b505050565b5b818110156126415761263660008261260a565b600181019050612623565b5050565b601f8211156126865761265781612368565b6126608461253b565b8101602085101561266f578190505b61268361267b8561253b565b830182612622565b50505b505050565b600082821c905092915050565b60006126a96000198460080261268b565b1980831691505092915050565b60006126c28383612698565b9150826002028217905092915050565b6126db82611ba0565b67ffffffffffffffff8111156126f4576126f36118f4565b5b6126fe8254612337565b612709828285612645565b600060209050601f83116001811461273c576000841561272a578287015190505b61273485826126b6565b86555061279c565b601f19841661274a86612368565b60005b828110156127725784890151825560018201915060208501945060208101905061274d565b8683101561278f578489015161278b601f891682612698565b8355505b6001600288020188555050505b505050505050565b60006040820190506127b96000830185611e9a565b6127c66020830184611e70565b9392505050565b7f4e487b7100000000000000000000000000000000000000000000000000000000600052601160045260246000fd5b6000612807826118a3565b91507fffffffffffffffffffffffffffffffffffffffffffffffffffffffffffffffff8203612839576128386127cd565b5b600182019050919050565b60006080820190506128596000830187611e9a565b818103602083015261286b8186611f31565b905061287a6040830185611e9a565b818103606083015261288c8184611f31565b905095945050505050565b7f4e487b7100000000000000000000000000000000000000000000000000000000600052603260045260246000fd5b7f417373657420697320616c72656164792064656c697374656400000000000000600082015250565b60006128fc601983611f20565b9150612907826128c6565b602082019050919050565b6000602082019050818103600083015261292b816128ef565b9050919050565b6000819050919050565b600067ffffffffffffffff82169050919050565b600061296b61296661296184612932565b6125aa565b61293c565b9050919050565b61297b81612950565b82525050565b60006020820190506129966000830184612972565b92915050565b7f417373657420616c726561647920736f6c640000000000000000000000000000600082015250565b60006129d2601283611f20565b91506129dd8261299c565b602082019050919050565b60006020820190508181036000830152612a01816129c5565b9050919050565b7f496e636f7272656374207061796d656e7420616d6f756e740000000000000000600082015250565b6000612a3e601883611f20565b9150612a4982612a08565b602082019050919050565b60006020820190508181036000830152612a6d81612a31565b9050919050565b7f4173736574206973206e6f74206c697374656400000000000000000000000000600082015250565b6000612aaa601383611f20565b9150612ab582612a74565b602082019050919050565b60006020820190508181036000830152612ad981612a9d565b9050919050565b600081905092915050565b50565b6000612afb600083612ae0565b9150612b0682612aeb565b600082019050919050565b6000612b1c82612aee565b9150819050919050565b7f5472616e73666572206661696c65640000000000000000000000000000000000600082015250565b6000612b5c600f83611f20565b9150612b6782612b26565b602082019050919050565b60006020820190508181036000830152612b8b81612b4f565b9050919050565b6000612b9d826118a3565b9150612ba8836118a3565b9250828201905080821115612bc057612bbf6127cd565b5b92915050565b6000612bd1826118a3565b9150612bdc836118a3565b9250828203905081811115612bf457612bf36127cd565b5b92915050565b7f4e487b7100000000000000000000000000000000000000000000000000000000600052603160045260246000fd5b6000608082019050612c3e6000830187611e9a565b8181036020830152612c508186611f31565b9050612c5f6040830185611f79565b612c6c6060830184611e9a565b9594505050505056fea26469706673582212202024fa8c63dc99e0d775657228f81f222187889987bf4fb19f4ed5222366429d64736f6c634300081c0033",
  "linkReferences": {},
  "deployedLinkReferences": {}
}